{
  "contractName": "IndexFundV1",
  "abi": [
    {
      "inputs": [],
      "stateMutability": "nonpayable",
      "type": "constructor"
    },
    {
      "anonymous": false,
      "inputs": [
        {
          "indexed": true,
          "internalType": "address",
          "name": "owner",
          "type": "address"
        },
        {
          "indexed": true,
          "internalType": "address",
          "name": "spender",
          "type": "address"
        },
        {
          "indexed": false,
          "internalType": "uint256",
          "name": "value",
          "type": "uint256"
        }
      ],
      "name": "Approval",
      "type": "event"
    },
    {
      "anonymous": false,
      "inputs": [
        {
          "indexed": true,
          "internalType": "address",
          "name": "from",
          "type": "address"
        },
        {
          "indexed": true,
          "internalType": "address",
          "name": "to",
          "type": "address"
        },
        {
          "indexed": false,
          "internalType": "uint256",
          "name": "value",
          "type": "uint256"
        }
      ],
      "name": "Transfer",
      "type": "event"
    },
    {
      "anonymous": false,
      "inputs": [
        {
          "indexed": false,
          "internalType": "address",
          "name": "from",
          "type": "address"
        },
        {
          "indexed": false,
          "internalType": "uint256",
          "name": "amount",
          "type": "uint256"
        },
        {
          "indexed": false,
          "internalType": "uint256[]",
          "name": "amountsReturned",
          "type": "uint256[]"
        }
      ],
      "name": "Unwrap",
      "type": "event"
    },
    {
      "anonymous": false,
      "inputs": [
        {
          "indexed": false,
          "internalType": "address",
          "name": "from",
          "type": "address"
        },
        {
          "indexed": false,
          "internalType": "uint256",
          "name": "amount",
          "type": "uint256"
        },
        {
          "indexed": false,
          "internalType": "uint256[]",
          "name": "amountsPaid",
          "type": "uint256[]"
        }
      ],
      "name": "Wrap",
      "type": "event"
    },
    {
      "inputs": [
        {
          "internalType": "address",
          "name": "owner",
          "type": "address"
        },
        {
          "internalType": "address",
          "name": "spender",
          "type": "address"
        }
      ],
      "name": "allowance",
      "outputs": [
        {
          "internalType": "uint256",
          "name": "",
          "type": "uint256"
        }
      ],
      "stateMutability": "view",
      "type": "function"
    },
    {
      "inputs": [
        {
          "internalType": "address",
          "name": "spender",
          "type": "address"
        },
        {
          "internalType": "uint256",
          "name": "amount",
          "type": "uint256"
        }
      ],
      "name": "approve",
      "outputs": [
        {
          "internalType": "bool",
          "name": "",
          "type": "bool"
        }
      ],
      "stateMutability": "nonpayable",
      "type": "function"
    },
    {
      "inputs": [
        {
          "internalType": "address",
          "name": "account",
          "type": "address"
        }
      ],
      "name": "balanceOf",
      "outputs": [
        {
          "internalType": "uint256",
          "name": "",
          "type": "uint256"
        }
      ],
      "stateMutability": "view",
      "type": "function"
    },
    {
      "inputs": [],
      "name": "controller",
      "outputs": [
        {
          "internalType": "address",
          "name": "",
          "type": "address"
        }
      ],
      "stateMutability": "view",
      "type": "function"
    },
    {
      "inputs": [],
      "name": "decimals",
      "outputs": [
        {
          "internalType": "uint8",
          "name": "",
          "type": "uint8"
        }
      ],
      "stateMutability": "view",
      "type": "function"
    },
    {
      "inputs": [
        {
          "internalType": "address",
          "name": "spender",
          "type": "address"
        },
        {
          "internalType": "uint256",
          "name": "subtractedValue",
          "type": "uint256"
        }
      ],
      "name": "decreaseAllowance",
      "outputs": [
        {
          "internalType": "bool",
          "name": "",
          "type": "bool"
        }
      ],
      "stateMutability": "nonpayable",
      "type": "function"
    },
    {
      "inputs": [
        {
          "internalType": "address",
          "name": "spender",
          "type": "address"
        },
        {
          "internalType": "uint256",
          "name": "addedValue",
          "type": "uint256"
        }
      ],
      "name": "increaseAllowance",
      "outputs": [
        {
          "internalType": "bool",
          "name": "",
          "type": "bool"
        }
      ],
      "stateMutability": "nonpayable",
      "type": "function"
    },
    {
      "inputs": [],
      "name": "investingNumerator",
      "outputs": [
        {
          "internalType": "uint256",
          "name": "",
          "type": "uint256"
        }
      ],
      "stateMutability": "view",
      "type": "function"
    },
    {
      "inputs": [],
      "name": "name",
      "outputs": [
        {
          "internalType": "string",
          "name": "",
          "type": "string"
        }
      ],
      "stateMutability": "view",
      "type": "function"
    },
    {
      "inputs": [],
      "name": "symbol",
      "outputs": [
        {
          "internalType": "string",
          "name": "",
          "type": "string"
        }
      ],
      "stateMutability": "view",
      "type": "function"
    },
    {
      "inputs": [
        {
          "internalType": "address",
          "name": "",
          "type": "address"
        }
      ],
      "name": "tokenData",
      "outputs": [
        {
          "internalType": "bool",
          "name": "exist",
          "type": "bool"
        },
        {
          "internalType": "address",
          "name": "vault",
          "type": "address"
        },
        {
          "internalType": "bool",
          "name": "withVault",
          "type": "bool"
        }
      ],
      "stateMutability": "view",
      "type": "function"
    },
    {
      "inputs": [],
      "name": "tokenLength",
      "outputs": [
        {
          "internalType": "uint256",
          "name": "",
          "type": "uint256"
        }
      ],
      "stateMutability": "view",
      "type": "function"
    },
    {
      "inputs": [],
      "name": "totalSupply",
      "outputs": [
        {
          "internalType": "uint256",
          "name": "",
          "type": "uint256"
        }
      ],
      "stateMutability": "view",
      "type": "function"
    },
    {
      "inputs": [
        {
          "internalType": "address",
          "name": "recipient",
          "type": "address"
        },
        {
          "internalType": "uint256",
          "name": "amount",
          "type": "uint256"
        }
      ],
      "name": "transfer",
      "outputs": [
        {
          "internalType": "bool",
          "name": "",
          "type": "bool"
        }
      ],
      "stateMutability": "nonpayable",
      "type": "function"
    },
    {
      "inputs": [
        {
          "internalType": "address",
          "name": "sender",
          "type": "address"
        },
        {
          "internalType": "address",
          "name": "recipient",
          "type": "address"
        },
        {
          "internalType": "uint256",
          "name": "amount",
          "type": "uint256"
        }
      ],
      "name": "transferFrom",
      "outputs": [
        {
          "internalType": "bool",
          "name": "",
          "type": "bool"
        }
      ],
      "stateMutability": "nonpayable",
      "type": "function"
    },
    {
      "inputs": [],
      "name": "withExitFee",
      "outputs": [
        {
          "internalType": "bool",
          "name": "",
          "type": "bool"
        }
      ],
      "stateMutability": "view",
      "type": "function"
    },
    {
      "inputs": [
        {
          "internalType": "address[]",
          "name": "_tokenArray",
          "type": "address[]"
        },
        {
          "internalType": "uint256[]",
          "name": "_proportionsArray",
          "type": "uint256[]"
        }
      ],
      "name": "initialize",
      "outputs": [],
      "stateMutability": "nonpayable",
      "type": "function"
    },
    {
      "inputs": [
        {
          "internalType": "uint256",
          "name": "_num",
          "type": "uint256"
        }
      ],
      "name": "setInvestingNumerator",
      "outputs": [],
      "stateMutability": "nonpayable",
      "type": "function"
    },
    {
      "inputs": [
        {
          "internalType": "bool",
          "name": "_withFee",
          "type": "bool"
        }
      ],
      "name": "setExitFee",
      "outputs": [],
      "stateMutability": "nonpayable",
      "type": "function"
    },
    {
      "inputs": [
        {
          "internalType": "address[]",
          "name": "_vaults",
          "type": "address[]"
        }
      ],
      "name": "setVaults",
      "outputs": [],
      "stateMutability": "nonpayable",
      "type": "function"
    },
    {
      "inputs": [
        {
          "internalType": "uint256[]",
          "name": "_amounts",
          "type": "uint256[]"
        }
      ],
      "name": "estimateAmountOut",
      "outputs": [
        {
          "internalType": "uint256",
          "name": "",
          "type": "uint256"
        }
      ],
      "stateMutability": "view",
      "type": "function"
    },
    {
      "inputs": [
        {
          "internalType": "uint256",
          "name": "_amount",
          "type": "uint256"
        }
      ],
      "name": "estimateAmountIn",
      "outputs": [
        {
          "internalType": "uint256[]",
          "name": "",
          "type": "uint256[]"
        }
      ],
      "stateMutability": "view",
      "type": "function"
    },
    {
      "inputs": [
        {
          "internalType": "uint256",
          "name": "_amount",
          "type": "uint256"
        },
        {
          "internalType": "address",
          "name": "_to",
          "type": "address"
        }
      ],
      "name": "wrap",
      "outputs": [
        {
          "internalType": "uint256",
          "name": "",
          "type": "uint256"
        }
      ],
      "stateMutability": "nonpayable",
      "type": "function"
    },
    {
      "inputs": [
        {
          "internalType": "address",
          "name": "_to",
          "type": "address"
        }
      ],
      "name": "unwrap",
      "outputs": [
        {
          "internalType": "uint256[]",
          "name": "",
          "type": "uint256[]"
        }
      ],
      "stateMutability": "nonpayable",
      "type": "function"
    },
    {
      "inputs": [],
      "name": "invest",
      "outputs": [],
      "stateMutability": "nonpayable",
      "type": "function"
    },
    {
      "inputs": [],
      "name": "getReserves",
      "outputs": [
        {
          "internalType": "uint256[]",
          "name": "",
          "type": "uint256[]"
        },
        {
          "internalType": "uint256",
          "name": "lastBlock",
          "type": "uint256"
        }
      ],
      "stateMutability": "view",
      "type": "function"
    },
    {
      "inputs": [],
      "name": "getTotalReserves",
      "outputs": [
        {
          "internalType": "uint256[]",
          "name": "realReserves",
          "type": "uint256[]"
        }
      ],
      "stateMutability": "view",
      "type": "function"
    },
    {
      "inputs": [],
      "name": "sync",
      "outputs": [],
      "stateMutability": "nonpayable",
      "type": "function"
    },
    {
      "inputs": [],
      "name": "tokens",
      "outputs": [
        {
          "internalType": "contract IERC20[]",
          "name": "",
          "type": "address[]"
        }
      ],
      "stateMutability": "view",
      "type": "function"
    },
    {
      "inputs": [],
      "name": "proportions",
      "outputs": [
        {
          "internalType": "uint256[]",
          "name": "",
          "type": "uint256[]"
        }
      ],
      "stateMutability": "view",
      "type": "function"
    },
    {
      "inputs": [],
      "name": "lastUnitPrices",
      "outputs": [
        {
          "internalType": "uint256[]",
          "name": "",
          "type": "uint256[]"
        }
      ],
      "stateMutability": "view",
      "type": "function"
    }
  ],
  "bytecode": "0x60806040526103206009556001600e553480156200001c57600080fd5b506040518060400160405280601081526020016f24b73232bc10233ab732102a37b5b2b760811b8152506040518060400160405280600381526020016212519560ea1b81525081600390805190602001906200007a929190620000b9565b50805162000090906004906020840190620000b9565b505060058054601260ff1990911617610100600160a81b03191661010033021790555062000155565b828054600181600116156101000203166002900490600052602060002090601f016020900481019282601f10620000fc57805160ff19168380011785556200012c565b828001600101855582156200012c579182015b828111156200012c5782518255916020019190600101906200010f565b506200013a9291506200013e565b5090565b5b808211156200013a57600081556001016200013f565b612f6f80620001656000396000f3fe608060405234801561001057600080fd5b50600436106101e55760003560e01c806357efaf5a1161010f578063a9059cbb116100a2578063e8b5e51f11610071578063e8b5e51f14610825578063f58c5e701461082d578063f77c47911461084a578063fff6cae91461086e576101e5565b8063a9059cbb146107bb578063dd62ed3e146107e7578063de66341e14610815578063e6682caf1461081d576101e5565b80637fbbe46f116100de5780637fbbe46f1461065c57806395d89b411461077f5780639d63848a14610787578063a457c2d71461078f576101e5565b806357efaf5a146105675780635bfaa4d21461060857806370a082311461061057806375f26e6314610636576101e5565b8063242693d311610187578063395093511161015657806339509351146104f55780633aa3cd4a146105215780633d1913661461052957806340685b941461054a576101e5565b8063242693d31461038e57806327e45c2c146103e6578063313ce56714610436578063330b1de814610454576101e5565b8063131f5ffe116101c3578063131f5ffe1461030a57806313bac8201461031257806318160ddd1461035057806323b872dd14610358576101e5565b806306fdde03146101ea5780630902f1ac14610267578063095ea7b3146102ca575b600080fd5b6101f2610876565b6040805160208082528351818301528351919283929083019185019080838360005b8381101561022c578181015183820152602001610214565b50505050905090810190601f1680156102595780820380516001836020036101000a031916815260200191505b509250505060405180910390f35b61026f61090c565b6040518080602001838152602001828103825284818151815260200191508051906020019060200280838360005b838110156102b557818101518382015260200161029d565b50505050905001935050505060405180910390f35b6102f6600480360360408110156102e057600080fd5b506001600160a01b03813516906020013561096f565b604080519115158252519081900360200190f35b6102f661098d565b61033e6004803603604081101561032857600080fd5b50803590602001356001600160a01b0316610996565b60408051918252519081900360200190f35b61033e610ced565b6102f66004803603606081101561036e57600080fd5b506001600160a01b03813581169160208101359091169060400135610cf3565b610396610d7b565b60408051602080825283518183015283519192839290830191858101910280838360005b838110156103d25781810151838201526020016103ba565b505050509050019250505060405180910390f35b61040c600480360360208110156103fc57600080fd5b50356001600160a01b0316610e03565b6040805193151584526001600160a01b039092166020840152151582820152519081900360600190f35b61043e610e33565b6040805160ff9092168252519081900360200190f35b61033e6004803603602081101561046a57600080fd5b810190602081018135600160201b81111561048457600080fd5b82018360208201111561049657600080fd5b803590602001918460208302840111600160201b831117156104b757600080fd5b919080806020026020016040519081016040528093929190818152602001838360200280828437600092019190915250929550610e3c945050505050565b6102f66004803603604081101561050b57600080fd5b506001600160a01b038135169060200135610f04565b610396610f52565b6105486004803603602081101561053f57600080fd5b50351515610fa9565b005b6103966004803603602081101561056057600080fd5b5035611012565b6105486004803603602081101561057d57600080fd5b810190602081018135600160201b81111561059757600080fd5b8201836020820111156105a957600080fd5b803590602001918460208302840111600160201b831117156105ca57600080fd5b91908080602002602001604051908101604052809392919081815260200183836020028082843760009201919091525092955061110d945050505050565b61033e6114cd565b61033e6004803603602081101561062657600080fd5b50356001600160a01b03166114d3565b6103966004803603602081101561064c57600080fd5b50356001600160a01b03166114ee565b6105486004803603604081101561067257600080fd5b810190602081018135600160201b81111561068c57600080fd5b82018360208201111561069e57600080fd5b803590602001918460208302840111600160201b831117156106bf57600080fd5b9190808060200260200160405190810160405280939291908181526020018383602002808284376000920191909152509295949360208101935035915050600160201b81111561070e57600080fd5b82018360208201111561072057600080fd5b803590602001918460208302840111600160201b8311171561074157600080fd5b91908080602002602001604051908101604052809392919081815260200183836020028082843760009201919091525092955061178b945050505050565b6101f26119b2565b610396611a13565b6102f6600480360360408110156107a557600080fd5b506001600160a01b038135169060200135611a74565b6102f6600480360360408110156107d157600080fd5b506001600160a01b038135169060200135611adc565b61033e600480360360408110156107fd57600080fd5b506001600160a01b0381358116916020013516611af0565b61033e611b1b565b610396611b21565b610548611b39565b6105486004803603602081101561084357600080fd5b5035611ca7565b610852611d10565b604080516001600160a01b039092168252519081900360200190f35b610548611d24565b60038054604080516020601f60026000196101006001881615020190951694909404938401819004810282018101909252828152606093909290918301828280156109025780601f106108d757610100808354040283529160200191610902565b820191906000526020600020905b8154815290600101906020018083116108e557829003601f168201915b5050505050905090565b60606000600c600d548180548060200260200160405190810160405280929190818152602001828054801561096057602002820191906000526020600020905b81548152602001906001019080831161094c575b50505050509150915091509091565b600061098361097c611e37565b8484611e3b565b5060015b92915050565b600a5460ff1681565b6000600e546001146109e3576040805162461bcd60e51b8152602060048201526011602482015270125b99195e119d5b990e881313d0d2d151607a1b604482015290519081900360640190fd5b6000600e5560065460609067ffffffffffffffff81118015610a0457600080fd5b50604051908082528060200260200182016040528015610a2e578160200160208202803683370190505b50905060005b600654811015610c4557600060078281548110610a4d57fe5b60009182526020918290200154604080516370a0823160e01b815230600482015290516001600160a01b03909216926370a0823192602480840193829003018186803b158015610a9c57600080fd5b505afa158015610ab0573d6000803e3d6000fd5b505050506040513d6020811015610ac657600080fd5b5051600c8054919250600091610afb919085908110610ae157fe5b906000526020600020015483611f2790919063ffffffff16565b9050610b05610ced565b610b6257610b45670de0b6b3a7640000610b3f60088681548110610b2557fe5b90600052602060002001548a611f8490919063ffffffff16565b90611fdd565b848481518110610b5157fe5b602002602001018181525050610bc4565b610bab610b6d610ced565b610b3f610ba484610b9e60078981548110610b8457fe5b6000918252602090912001546001600160a01b0316612044565b90611f27565b8a90611f84565b848481518110610bb757fe5b6020026020010181815250505b838381518110610bd057fe5b6020026020010151811015610c21576040805162461bcd60e51b81526020600482015260126024820152716e6f7420656e6f75676820616d6f756e747360701b604482015290519081900360640190fd5b81600c8481548110610c2f57fe5b6000918252602090912001555050600101610a34565b5043600d55610c548385612243565b7fb2647a168af5ee4716582e5446f41877dce940cd2bd550bcda1e2027414d3d8383858360405180846001600160a01b0316815260200183815260200180602001828103825283818151815260200191508051906020019060200280838360005b83811015610ccd578181015183820152602001610cb5565b5050505090500194505050505060405180910390a150506001600e555090565b60025490565b6000610d00848484612333565b610d7084610d0c611e37565b610d6b85604051806060016040528060288152602001612e23602891396001600160a01b038a16600090815260016020526040812090610d4a611e37565b6001600160a01b03168152602081019190915260400160002054919061248e565b611e3b565b5060015b9392505050565b606060065467ffffffffffffffff81118015610d9657600080fd5b50604051908082528060200260200182016040528015610dc0578160200160208202803683370190505b50905060005b600654811015610dff57610de060078281548110610b8457fe5b828281518110610dec57fe5b6020908102919091010152600101610dc6565b5090565b600b6020526000908152604090205460ff808216916001600160a01b0361010082041691600160a81b9091041683565b60055460ff1690565b6000600654825114610e4d57600080fd5b60001960005b600654811015610efd576000610e67610ced565b610ebb57610eb460088381548110610e7b57fe5b9060005260206000200154610b3f670de0b6b3a7640000888681518110610e9e57fe5b6020026020010151611f8490919063ffffffff16565b9050610ee8565b610ee5610ece60078481548110610b8457fe5b610b3f610ed9610ced565b888681518110610e9e57fe5b90505b82811015610ef4578092505b50600101610e53565b5092915050565b6000610983610f11611e37565b84610d6b8560016000610f22611e37565b6001600160a01b03908116825260208083019390935260409182016000908120918c168152925290205490612525565b6060600880548060200260200160405190810160405280929190818152602001828054801561090257602002820191906000526020600020905b815481526020019060010190808311610f8c575050505050905090565b60055461010090046001600160a01b03163314610fff576040805162461bcd60e51b815260206004820152600f60248201526e2a30b1b79d102327a92124a22222a760891b604482015290519081900360640190fd5b600a805460ff1916911515919091179055565b60608060065467ffffffffffffffff8111801561102e57600080fd5b50604051908082528060200260200182016040528015611058578160200160208202803683370190505b50905060005b600654811015610efd57611070610ced565b6110c7576110aa670de0b6b3a7640000610b3f6008848154811061109057fe5b906000526020600020015487611f8490919063ffffffff16565b8282815181106110b657fe5b602002602001018181525050611105565b6110ec6110d2610ced565b610b3f6110e560078581548110610b8457fe5b8790611f84565b8282815181106110f857fe5b6020026020010181815250505b60010161105e565b60055461010090046001600160a01b03163314611163576040805162461bcd60e51b815260206004820152600f60248201526e2a30b1b79d102327a92124a22222a760891b604482015290519081900360640190fd5b6006548151146111b0576040805162461bcd60e51b81526020600482015260136024820152725461636f3a20696e76616c696420617272617960681b604482015290519081900360640190fd5b60005b6006548110156114c9576000600782815481106111cc57fe5b60009182526020808320909101546001600160a01b03908116808452600b90925260408320548651929450610100900416919085908590811061120b57fe5b60200260200101516001600160a01b031614156112cc576001600160a01b0382166000908152600b6020526040902054600160a81b900460ff16156112c557806001600160a01b031663853828b66040518163ffffffff1660e01b8152600401600060405180830381600087803b15801561128557600080fd5b505af1158015611299573d6000803e3d6000fd5b5050506001600160a01b0383166000908152600b602052604090208054610100600160b01b0319169055505b50506114c1565b600783815481106112d957fe5b60009182526020909120015484516001600160a01b03909116908590859081106112ff57fe5b60200260200101516001600160a01b0316636f307dc36040518163ffffffff1660e01b815260040160206040518083038186803b15801561133f57600080fd5b505afa158015611353573d6000803e3d6000fd5b505050506040513d602081101561136957600080fd5b50516001600160a01b0316146113b6576040805162461bcd60e51b815260206004820152600d60248201526c1a5b9d985b1a59081d985d5b1d609a1b604482015290519081900360640190fd5b806001600160a01b03168484815181106113cc57fe5b60200260200101516001600160a01b0316146114be576001600160a01b0382166000908152600b6020526040902054600160a81b900460ff161561145e57806001600160a01b031663853828b66040518163ffffffff1660e01b8152600401600060405180830381600087803b15801561144557600080fd5b505af1158015611459573d6000803e3d6000fd5b505050505b83838151811061146a57fe5b6020908102919091018101516001600160a01b038085166000908152600b9093526040909220805460ff60a81b199390921661010002610100600160a81b03199092169190911791909116600160a81b1790555b50505b6001016111b3565b5050565b60095481565b6001600160a01b031660009081526020819052604090205490565b6060600e5460011461153b576040805162461bcd60e51b8152602060048201526011602482015270125b99195e119d5b990e881313d0d2d151607a1b604482015290519081900360640190fd5b6000600e81905561154b306114d3565b9050606060065467ffffffffffffffff8111801561156857600080fd5b50604051908082528060200260200182016040528015611592578160200160208202803683370190505b50905060005b6006548110156116df5760006115b460078381548110610b8457fe5b905060006115cd6115c3610ced565b610b3f8785611f84565b600a5490915060ff16156115ef576115ec6103e8610b3f836005611f84565b90505b61161b600784815481106115ff57fe5b6000918252602090912001546001600160a01b0316888361257f565b84848151811061162757fe5b6020026020010181815250506007838154811061164057fe5b60009182526020918290200154604080516370a0823160e01b815230600482015290516001600160a01b03909216926370a0823192602480840193829003018186803b15801561168f57600080fd5b505afa1580156116a3573d6000803e3d6000fd5b505050506040513d60208110156116b957600080fd5b5051600c8054859081106116c957fe5b6000918252602090912001555050600101611598565b506116ea30836127e5565b43600d819055507ff40cc3f99f6e881a1411f675cf8b05609e2e48f0803e2f483b160aa793562daa84838360405180846001600160a01b0316815260200183815260200180602001828103825283818151815260200191508051906020019060200280838360005b8381101561176a578181015183820152602001611752565b5050505090500194505050505060405180910390a16001600e559392505050565b60055461010090046001600160a01b031633146117e1576040805162461bcd60e51b815260206004820152600f60248201526e2a30b1b79d102327a92124a22222a760891b604482015290519081900360640190fd5b8151600681905581511461183c576040805162461bcd60e51b815260206004820152601960248201527f496e64657846756e643a20696e76616c69642061727261797300000000000000604482015290519081900360640190fd5b60005b60065481101561199957600b600084838151811061185957fe5b6020908102919091018101516001600160a01b031682528101919091526040016000205460ff16156118d2576040805162461bcd60e51b815260206004820152601e60248201527f5772617070656446756e643a206475706c696361746520616464726573730000604482015290519081900360640190fd5b60078382815181106118e057fe5b60209081029190910181015182546001808201855560009485529284200180546001600160a01b0319166001600160a01b03909216919091179055600c805480830182559083527fdf6966c971051c3d54ec59162606531493a51404a002842f56009d7e5cf4a8c70182905584519091600b9186908590811061195f57fe5b6020908102919091018101516001600160a01b03168252810191909152604001600020805460ff191691151591909117905560010161183f565b5080516119ad906008906020840190612cd2565b505050565b60048054604080516020601f60026000196101006001881615020190951694909404938401819004810282018101909252828152606093909290918301828280156109025780601f106108d757610100808354040283529160200191610902565b6060600780548060200260200160405190810160405280929190818152602001828054801561090257602002820191906000526020600020905b81546001600160a01b03168152600190910190602001808311611a4d575050505050905090565b6000610983611a81611e37565b84610d6b85604051806060016040528060258152602001612f156025913960016000611aab611e37565b6001600160a01b03908116825260208083019390935260409182016000908120918d1681529252902054919061248e565b6000610983611ae9611e37565b8484612333565b6001600160a01b03918216600090815260016020908152604080832093909416825291909152205490565b60065481565b6060611b34670de0b6b3a7640000611012565b905090565b60005b600654811015611c9c57611b4e612d19565b600b600060078481548110611b5f57fe5b60009182526020808320909101546001600160a01b0390811684528382019490945260409283019091208251606081018452905460ff80821615158352610100820490951692820192909252600160a81b90910490921615801591830191909152909150611c93576000611bfb6103e8610b3f600954600c8781548110611be257fe5b9060005260206000200154611f8490919063ffffffff16565b9050611c2f82602001518260078681548110611c1357fe5b6000918252602090912001546001600160a01b031691906128e1565b81602001516001600160a01b031663b6b55f25826040518263ffffffff1660e01b815260040180828152602001915050600060405180830381600087803b158015611c7957600080fd5b505af1158015611c8d573d6000803e3d6000fd5b50505050505b50600101611b3c565b50611ca5611d24565b565b60055461010090046001600160a01b03163314611cfd576040805162461bcd60e51b815260206004820152600f60248201526e2a30b1b79d102327a92124a22222a760891b604482015290519081900360640190fd5b6103e88110611d0b57600080fd5b600955565b60055461010090046001600160a01b031681565b600e54600114611d6f576040805162461bcd60e51b8152602060048201526011602482015270125b99195e119d5b990e881313d0d2d151607a1b604482015290519081900360640190fd5b6000600e8190555b600654811015611e2b5760078181548110611d8e57fe5b60009182526020918290200154604080516370a0823160e01b815230600482015290516001600160a01b03909216926370a0823192602480840193829003018186803b158015611ddd57600080fd5b505afa158015611df1573d6000803e3d6000fd5b505050506040513d6020811015611e0757600080fd5b5051600c805483908110611e1757fe5b600091825260209091200155600101611d77565b5043600d556001600e55565b3390565b6001600160a01b038316611e805760405162461bcd60e51b8152600401808060200182810382526024815260200180612e916024913960400191505060405180910390fd5b6001600160a01b038216611ec55760405162461bcd60e51b8152600401808060200182810382526022815260200180612d946022913960400191505060405180910390fd5b6001600160a01b03808416600081815260016020908152604080832094871680845294825291829020859055815185815291517f8c5be1e5ebec7d5bd14f71427d1e84f3dd0314c0f7b2291e5b200ac8c7c3b9259281900390910190a3505050565b600082821115611f7e576040805162461bcd60e51b815260206004820152601e60248201527f536166654d6174683a207375627472616374696f6e206f766572666c6f770000604482015290519081900360640190fd5b50900390565b600082611f9357506000610987565b82820282848281611fa057fe5b0414610d745760405162461bcd60e51b8152600401808060200182810382526021815260200180612e026021913960400191505060405180910390fd5b6000808211612033576040805162461bcd60e51b815260206004820152601a60248201527f536166654d6174683a206469766973696f6e206279207a65726f000000000000604482015290519081900360640190fd5b81838161203c57fe5b049392505050565b600080826001600160a01b03166370a08231306040518263ffffffff1660e01b815260040180826001600160a01b0316815260200191505060206040518083038186803b15801561209457600080fd5b505afa1580156120a8573d6000803e3d6000fd5b505050506040513d60208110156120be57600080fd5b505190506120ca612d19565b506001600160a01b038084166000908152600b60209081526040918290208251606081018452905460ff80821615158352610100820490951692820192909252600160a81b90910490921615801591830191909152610efd57600081602001516001600160a01b03166370a08231306040518263ffffffff1660e01b815260040180826001600160a01b0316815260200191505060206040518083038186803b15801561217657600080fd5b505afa15801561218a573d6000803e3d6000fd5b505050506040513d60208110156121a057600080fd5b505160208381015160408051631df1ee3f60e21b8152905193945061223a9361223393670de0b6b3a764000093610b3f936001600160a01b03909116926377c7b8fc92600480840193919291829003018186803b15801561220057600080fd5b505afa158015612214573d6000803e3d6000fd5b505050506040513d602081101561222a57600080fd5b50518590611f84565b8490612525565b95945050505050565b6001600160a01b03821661229e576040805162461bcd60e51b815260206004820152601f60248201527f45524332303a206d696e7420746f20746865207a65726f206164647265737300604482015290519081900360640190fd5b6122aa600083836119ad565b6002546122b79082612525565b6002556001600160a01b0382166000908152602081905260409020546122dd9082612525565b6001600160a01b0383166000818152602081815260408083209490945583518581529351929391927fddf252ad1be2c89b69c2b068fc378daa952ba7f163c4a11628f55a4df523b3ef9281900390910190a35050565b6001600160a01b0383166123785760405162461bcd60e51b8152600401808060200182810382526025815260200180612e6c6025913960400191505060405180910390fd5b6001600160a01b0382166123bd5760405162461bcd60e51b8152600401808060200182810382526023815260200180612d4f6023913960400191505060405180910390fd5b6123c88383836119ad565b61240581604051806060016040528060268152602001612db6602691396001600160a01b038616600090815260208190526040902054919061248e565b6001600160a01b0380851660009081526020819052604080822093909355908416815220546124349082612525565b6001600160a01b038084166000818152602081815260409182902094909455805185815290519193928716927fddf252ad1be2c89b69c2b068fc378daa952ba7f163c4a11628f55a4df523b3ef92918290030190a3505050565b6000818484111561251d5760405162461bcd60e51b81526004018080602001828103825283818151815260200191508051906020019080838360005b838110156124e25781810151838201526020016124ca565b50505050905090810190601f16801561250f5780820380516001836020036101000a031916815260200191505b509250505060405180910390fd5b505050900390565b600082820183811015610d74576040805162461bcd60e51b815260206004820152601b60248201527f536166654d6174683a206164646974696f6e206f766572666c6f770000000000604482015290519081900360640190fd5b600080846001600160a01b03166370a08231306040518263ffffffff1660e01b815260040180826001600160a01b0316815260200191505060206040518083038186803b1580156125cf57600080fd5b505afa1580156125e3573d6000803e3d6000fd5b505050506040513d60208110156125f957600080fd5b50519050828110156127c85761260d612d19565b506001600160a01b038086166000908152600b602090815260408083208151606081018352905460ff80821615158352610100820490961693820193909352600160a81b90920490931615159281019290925261266a8584611f27565b905060006126ec83602001516001600160a01b03166377c7b8fc6040518163ffffffff1660e01b815260040160206040518083038186803b1580156126ae57600080fd5b505afa1580156126c2573d6000803e3d6000fd5b505050506040513d60208110156126d857600080fd5b5051610b3f84670de0b6b3a7640000611f84565b905082602001516001600160a01b0316632e1a7d4d826040518263ffffffff1660e01b815260040180828152602001915050600060405180830381600087803b15801561273857600080fd5b505af115801561274c573d6000803e3d6000fd5b5050604080516370a0823160e01b815230600482015290516001600160a01b038c1693506370a0823192506024808301926020929190829003018186803b15801561279657600080fd5b505afa1580156127aa573d6000803e3d6000fd5b505050506040513d60208110156127c057600080fd5b505195505050505b6127dc6001600160a01b03861685856129f4565b50909392505050565b6001600160a01b03821661282a5760405162461bcd60e51b8152600401808060200182810382526021815260200180612e4b6021913960400191505060405180910390fd5b612836826000836119ad565b61287381604051806060016040528060228152602001612d72602291396001600160a01b038516600090815260208190526040902054919061248e565b6001600160a01b0383166000908152602081905260409020556002546128999082611f27565b6002556040805182815290516000916001600160a01b038516917fddf252ad1be2c89b69c2b068fc378daa952ba7f163c4a11628f55a4df523b3ef9181900360200190a35050565b801580612967575060408051636eb1769f60e11b81523060048201526001600160a01b03848116602483015291519185169163dd62ed3e91604480820192602092909190829003018186803b15801561293957600080fd5b505afa15801561294d573d6000803e3d6000fd5b505050506040513d602081101561296357600080fd5b5051155b6129a25760405162461bcd60e51b8152600401808060200182810382526036815260200180612edf6036913960400191505060405180910390fd5b604080516001600160a01b038416602482015260448082018490528251808303909101815260649091019091526020810180516001600160e01b031663095ea7b360e01b1790526119ad908490612a42565b604080516001600160a01b038416602482015260448082018490528251808303909101815260649091019091526020810180516001600160e01b031663a9059cbb60e01b1790526119ad9084905b6060612a97826040518060400160405280602081526020017f5361666545524332303a206c6f772d6c6576656c2063616c6c206661696c6564815250856001600160a01b0316612af39092919063ffffffff16565b8051909150156119ad57808060200190516020811015612ab657600080fd5b50516119ad5760405162461bcd60e51b815260040180806020018281038252602a815260200180612eb5602a913960400191505060405180910390fd5b6060612b028484600085612b0a565b949350505050565b606082471015612b4b5760405162461bcd60e51b8152600401808060200182810382526026815260200180612ddc6026913960400191505060405180910390fd5b612b5485612c66565b612ba5576040805162461bcd60e51b815260206004820152601d60248201527f416464726573733a2063616c6c20746f206e6f6e2d636f6e7472616374000000604482015290519081900360640190fd5b60006060866001600160a01b031685876040518082805190602001908083835b60208310612be45780518252601f199092019160209182019101612bc5565b6001836020036101000a03801982511681845116808217855250505050505090500191505060006040518083038185875af1925050503d8060008114612c46576040519150601f19603f3d011682016040523d82523d6000602084013e612c4b565b606091505b5091509150612c5b828286612c6c565b979650505050505050565b3b151590565b60608315612c7b575081610d74565b825115612c8b5782518084602001fd5b60405162461bcd60e51b81526020600482018181528451602484015284518593919283926044019190850190808383600083156124e25781810151838201526020016124ca565b828054828255906000526020600020908101928215612d0d579160200282015b82811115612d0d578251825591602001919060010190612cf2565b50610dff929150612d39565b604080516060810182526000808252602082018190529181019190915290565b5b80821115610dff5760008155600101612d3a56fe45524332303a207472616e7366657220746f20746865207a65726f206164647265737345524332303a206275726e20616d6f756e7420657863656564732062616c616e636545524332303a20617070726f766520746f20746865207a65726f206164647265737345524332303a207472616e7366657220616d6f756e7420657863656564732062616c616e6365416464726573733a20696e73756666696369656e742062616c616e636520666f722063616c6c536166654d6174683a206d756c7469706c69636174696f6e206f766572666c6f7745524332303a207472616e7366657220616d6f756e74206578636565647320616c6c6f77616e636545524332303a206275726e2066726f6d20746865207a65726f206164647265737345524332303a207472616e736665722066726f6d20746865207a65726f206164647265737345524332303a20617070726f76652066726f6d20746865207a65726f20616464726573735361666545524332303a204552433230206f7065726174696f6e20646964206e6f7420737563636565645361666545524332303a20617070726f76652066726f6d206e6f6e2d7a65726f20746f206e6f6e2d7a65726f20616c6c6f77616e636545524332303a2064656372656173656420616c6c6f77616e63652062656c6f77207a65726fa264697066735822122014c2d19ab4be86b17888834902451a19c30f20152ca9de4e3cd68e6a8ec430c564736f6c63430007000033",
  "immutableReferences": {},
  "source": "// SPDX-License-Identifier: MIT\n\npragma solidity ^0.7.0;\n\nimport '@openzeppelin/contracts/token/ERC20/ERC20.sol';\nimport \"@openzeppelin/contracts/token/ERC20/SafeERC20.sol\";\nimport './interfaces/IVault.sol';\n\n\n/// @author Kindynos\n/// @title Index Funds.\ncontract IndexFundV1 is ERC20 {\n    using SafeMath for uint256;\n    using SafeERC20 for IERC20;\n\n    /// The controller that created this Fund.\n    address public controller;\n    /// The amount of tokens on this particular Fund.\n    uint256 public tokenLength;\n    // The reference to the tokens on the pool.\n    IERC20[] _tokens;\n    // Initial amounts of the underlying tokens.\n    uint256[] _proportions;\n\n    /// For money-earning strategies.\n    struct TokenData {\n        bool exist; // Helper var for initialization\n        address vault;\n        bool withVault;\n    }\n\n    // We invest 800/1000 of funds\n    uint256 public investingNumerator = 800;\n    // Fee if active is 5/1000 = 0.05%\n    uint256 constant exitFeeNumerator = 5;\n\n    // Boolean if this Fund has an exit Fee.\n    bool public withExitFee;\n\n    // Vault data for each token of the Fund.\n    mapping(address => TokenData) public tokenData;\n    // The current Funds reserves on the contract.\n    uint256[] private _reserves;\n    // The last block where the reserves were updated.\n    uint256 private _lastBlock;\n\n    // The representation of a single unit of the IFT.\n    uint256 constant UNIT_AMOUNT = 1 ether;\n\n    uint256 constant MAX_INT = 2**256 - 1;\n\n    uint private unlocked = 1;\n\n    event Wrap(address from, uint256 amount, uint256[] amountsPaid);\n    event Unwrap(address from, uint256 amount, uint256[] amountsReturned);\n\n    modifier lock() {\n        require(unlocked == 1, 'IndexFund: LOCKED');\n        unlocked = 0;\n        _;\n        unlocked = 1;\n    }\n\n    constructor() ERC20('Index Fund Token', 'IFT') {\n        controller = msg.sender;\n    }\n\n    /**\n     * @notice This function is called at creation to set the variables of the Fund.\n     * @dev Assumed that the length of tokenArray is reasonable, and that the tokens/amounts are ordered.\n     * @param _tokenArray The token addresses that make the fund.\n     * @param _proportionsArray The amounts of the respective tokens that represent a (1) unit of the Fund Token.\n     */\n    function initialize(address[] memory _tokenArray,  uint256[] memory _proportionsArray) external {\n        require(msg.sender == controller, 'Taco: FORBIDDEN');\n        tokenLength = _tokenArray.length;\n        require(tokenLength == _proportionsArray.length, \"IndexFund: invalid arrays\");\n        for (uint i=0; i < tokenLength; i++) {\n            // Validate correctness of the array\n            require(!tokenData[_tokenArray[i]].exist, \"WrappedFund: duplicate address\");\n            _tokens.push(IERC20(_tokenArray[i]));\n            _reserves.push(0);\n            tokenData[_tokenArray[i]].exist = true;\n        }\n\n        _proportions = _proportionsArray;\n    }\n\n    /**\n      * @notice Modify amount that is invested from an IndexFund\n      * @param _num The new numerator.\n      */\n    function setInvestingNumerator(uint256 _num) external {\n        require(msg.sender == controller, 'Taco: FORBIDDEN');\n        require(_num < 1000);\n        investingNumerator = _num;\n    }\n\n    /**\n      * @notice @notice Set if an IndexFund has the 0.05 exit Fee.\n      * @dev The fee is kept in the Fund for the other users, is not a dev fee.\n      * @param _withFee If the fee is active or not.\n      */\n    function setExitFee(bool _withFee) external {\n        require(msg.sender == controller, 'Taco: FORBIDDEN');\n        withExitFee = _withFee;\n    }\n\n    /**\n      * @notice Changes the vaults on which the fund's tokens are invested. Can be set to the 0 address to disable investing.\n      * @dev 3 cases: same vault skip, zero address vault disable, different vault replace.\n      * @param _vaults The addresses of the new vaults.\n      */\n    function setVaults(address[] memory _vaults) external {\n        require(msg.sender == controller, 'Taco: FORBIDDEN');\n        require(_vaults.length == tokenLength, \"Taco: invalid array\");\n        for (uint i=0; i < tokenLength; i++) {\n            address currentToken = address(_tokens[i]);\n            IVault currentVault = IVault(tokenData[currentToken].vault);\n            // The vault must be valid or null\n            if(_vaults[i] == address(0)){\n                // In case of retiring a vault\n                if(tokenData[currentToken].withVault){\n                    currentVault.withdrawAll();\n                    tokenData[currentToken].vault = address(0);\n                    tokenData[currentToken].withVault = false;\n                }\n                continue;\n            }\n            require(IVault(_vaults[i]).underlying() == _tokens[i], \"invalid vault\");\n            // In case of replacing a vault\n            if(_vaults[i] != address(currentVault)){\n                if(tokenData[currentToken].withVault){\n                    currentVault.withdrawAll();\n                }\n                tokenData[currentToken].vault = _vaults[i];\n                tokenData[currentToken].withVault = true;\n            }\n        }\n    }\n\n\n\n    /**\n      * @notice Estimates the max amount of IFT that can be minted from amounts given.\n      * @dev _amounts should be in order.\n      * @param _amounts The token amounts for the underlying tokens.\n      * @return The max amount of tokens that can be minted.\n      */\n    function estimateAmountOut(uint256[] memory _amounts) public view returns (uint256) {\n        require(_amounts.length == tokenLength);\n        uint256 n = MAX_INT;\n        for (uint i=0; i< tokenLength; i++) {\n            uint256 minA;\n            if(totalSupply() == 0){\n                minA = _amounts[i].mul(UNIT_AMOUNT).div(_proportions[i]);\n            }\n            else {\n                minA = _amounts[i].mul(totalSupply()).div(getBalanceOfThis(_tokens[i]));\n            }\n            if (minA < n) {\n                n = minA;\n            }\n        }\n        return n;\n    }\n\n    /**\n      * @notice Estimates the amounts of underlying tokens needed to mint the specified amount of IFT\n      * @param _amount Amount that wants to be minted.\n      * @return The amount for each token required.\n      */\n    function estimateAmountIn(uint256 _amount) public view returns (uint256[] memory) {\n        uint256[] memory prices = new uint256[](tokenLength);\n        for (uint i = 0; i < tokenLength; i++) {\n            if(totalSupply() == 0){\n                prices[i] = _amount.mul(_proportions[i]).div(UNIT_AMOUNT);\n            }\n            else {\n                prices[i] = _amount.mul(getBalanceOfThis(_tokens[i])).div(totalSupply());\n            }\n        }\n        return prices;\n    }\n\n    /**\n      * @notice Takes the proportionate underlying tokens from the user to the contract and mints new IFT.\n      * @dev Should be called from a Helper contract for safety. Remnants will not be refunded.\n      * @param _amount Amount that wants to be minted.\n      * @param _to The address that receives the IFT.\n      * @return The amount minted.\n      */\n    function wrap(uint256 _amount, address _to) public lock returns(uint256) {\n        uint256[] memory prices = new uint256[](tokenLength);\n        for (uint i = 0; i < tokenLength; i++) {\n            uint256 balance = _tokens[i].balanceOf(address(this));\n            uint256 amountReceived = balance.sub(_reserves[i]);\n            if(totalSupply() == 0){\n                prices[i] = _amount.mul(_proportions[i]).div(UNIT_AMOUNT);\n            }\n            else {\n                prices[i] = _amount.mul(getBalanceOfThis(_tokens[i]).sub(amountReceived)).div(totalSupply());\n            }\n            require( amountReceived >= prices[i], \"not enough amounts\");\n            // update reserves\n            _reserves[i] = balance;\n\n        }\n        _lastBlock = block.number;\n        _mint(_to, _amount);\n        emit Wrap(_to, _amount, prices);\n        return _amount;\n    }\n\n    /**\n      * @notice Burns the WFT and returns the proportionate underlying tokens to the user.\n      * @dev Charges a 0.005 fee if the variable withExitFee is true.\n      * @param _to The address that receives the Funds.\n      * @return The amount of underlying funds transferred.\n      */\n    function unwrap(address _to) public lock returns(uint256[] memory) {\n        uint256 _amount = balanceOf(address(this));\n        uint256[] memory amounts = new uint256[](tokenLength);\n        for (uint i = 0; i < tokenLength; i++) {\n            uint256 balance = getBalanceOfThis(_tokens[i]);\n            uint256 tokenAmount = _amount.mul(balance).div(totalSupply());\n            // 0.05 exit fee\n            if(withExitFee){\n                tokenAmount = tokenAmount.mul(exitFeeNumerator).div(1000);\n            }\n            amounts[i] = fundSafeTransfer(_tokens[i], _to, tokenAmount);\n            // update _reserves\n            _reserves[i] = _tokens[i].balanceOf(address(this));\n        }\n        _burn(address(this), _amount);\n        _lastBlock = block.number;\n        emit Unwrap(_to, _amount, amounts);\n        return amounts;\n    }\n\n    /**\n      * @notice Invests a percentage of the funds into their respective vaults.\n      * @dev The percentage is defined by the investingNumerator var.\n      */\n    function invest() external {\n        for (uint i = 0; i < tokenLength; i++) {\n            TokenData memory data = tokenData[address(_tokens[i])];\n            if(data.withVault){\n                uint256 amount = _reserves[i].mul(investingNumerator).div(1000);\n                _tokens[i].safeApprove(data.vault, amount);\n                IVault(data.vault).deposit(amount);\n            }\n        }\n        sync();\n    }\n\n    /**\n      * @notice Returns reserves held in the contract only.\n      * @return The amount for each underlying token.\n      * @return lastBlock The block where this value was last updated.\n      */\n    function getReserves() public view returns (uint256[] memory, uint256 lastBlock) {\n        return (_reserves, _lastBlock);\n    }\n\n    /**\n      * @notice Returns reserves held in the contract + investments\n      * @return realReserves The total reserves for each token.\n      */\n    function getTotalReserves() public view returns (uint256[] memory realReserves) {\n        realReserves = new uint[](tokenLength);\n        for (uint i = 0; i < tokenLength; i++) {\n            realReserves[i] = getBalanceOfThis(_tokens[i]);\n        }\n        return realReserves;\n    }\n\n    // Get real balance of a token, accounting amount invested\n    function getBalanceOfThis(IERC20 _token) internal view returns (uint256) {\n        uint256 balance = _token.balanceOf(address(this));\n        TokenData memory data = tokenData[address(_token)];\n        if(data.withVault){\n            uint256 shareBalance = IERC20(data.vault).balanceOf(address(this));\n            // add the deposited balance\n            balance = balance.add(shareBalance.mul(IVault(data.vault).getPricePerFullShare()).div(UNIT_AMOUNT));\n        }\n        return balance;\n    }\n\n    // Safe transfer withdrawing from vault when in need of funds.\n    function fundSafeTransfer(IERC20 _token, address _to, uint256 _amount) internal returns(uint256){\n        uint256 underlyingBal = _token.balanceOf(address(this));\n        if (underlyingBal < _amount) {\n            // If we don't have the required amount, withdraw the missing amount from vault and send it all\n            TokenData memory data = tokenData[address(_token)];\n            uint256 toRedeem = _amount.sub(underlyingBal);\n            uint256 amountInShares = toRedeem.mul(UNIT_AMOUNT).div(IVault(data.vault).getPricePerFullShare());\n            IVault(data.vault).withdraw(amountInShares);\n            // we send what we can. Helper should check if this amount is enough/intended\n            _amount = _token.balanceOf(address(this));\n        }\n        _token.safeTransfer(_to, _amount);\n        return _amount;\n    }\n\n    /// Match reserves to balances\n    function sync() public lock {\n        for (uint i = 0; i < tokenLength; i++) {\n            _reserves[i] = _tokens[i].balanceOf(address(this));\n        }\n        _lastBlock = block.number;\n    }\n\n    /// The reference to the tokens on the pool.\n    function tokens() external view returns (IERC20[] memory) {\n        return _tokens;\n    }\n\n    /// Initial amounts of the underlying tokens.\n    function proportions() external view returns (uint256[] memory) {\n        return _proportions;\n    }\n\n    /// Price for a unit (1) of the Index Fund Token\n    function lastUnitPrices() external view returns (uint256[] memory) {\n        return estimateAmountIn(UNIT_AMOUNT);\n    }\n\n}",
  "sourcePath": "D:\\Documents\\farming\\contracts\\IndexFundV1.sol",
  "compiler": {
    "name": "solc",
    "version": "0.7.0+commit.9e61f92b.Emscripten.clang"
  },
  "schemaVersion": "3.3.3",
  "updatedAt": "2021-06-26T22:40:25.717Z",
  "devdoc": {
    "author": "Kindynos",
    "kind": "dev",
    "methods": {
      "allowance(address,address)": {
        "details": "See {IERC20-allowance}."
      },
      "approve(address,uint256)": {
        "details": "See {IERC20-approve}. Requirements: - `spender` cannot be the zero address."
      },
      "balanceOf(address)": {
        "details": "See {IERC20-balanceOf}."
      },
      "decimals()": {
        "details": "Returns the number of decimals used to get its user representation. For example, if `decimals` equals `2`, a balance of `505` tokens should be displayed to a user as `5,05` (`505 / 10 ** 2`). Tokens usually opt for a value of 18, imitating the relationship between Ether and Wei. This is the value {ERC20} uses, unless {_setupDecimals} is called. NOTE: This information is only used for _display_ purposes: it in no way affects any of the arithmetic of the contract, including {IERC20-balanceOf} and {IERC20-transfer}."
      },
      "decreaseAllowance(address,uint256)": {
        "details": "Atomically decreases the allowance granted to `spender` by the caller. This is an alternative to {approve} that can be used as a mitigation for problems described in {IERC20-approve}. Emits an {Approval} event indicating the updated allowance. Requirements: - `spender` cannot be the zero address. - `spender` must have allowance for the caller of at least `subtractedValue`."
      },
      "estimateAmountIn(uint256)": {
        "params": {
          "_amount": "Amount that wants to be minted."
        },
        "returns": {
          "_0": "The amount for each token required."
        }
      },
      "estimateAmountOut(uint256[])": {
        "details": "_amounts should be in order.",
        "params": {
          "_amounts": "The token amounts for the underlying tokens."
        },
        "returns": {
          "_0": "The max amount of tokens that can be minted."
        }
      },
      "getReserves()": {
        "returns": {
          "_0": "The amount for each underlying token.",
          "lastBlock": "The block where this value was last updated."
        }
      },
      "getTotalReserves()": {
        "returns": {
          "realReserves": "The total reserves for each token."
        }
      },
      "increaseAllowance(address,uint256)": {
        "details": "Atomically increases the allowance granted to `spender` by the caller. This is an alternative to {approve} that can be used as a mitigation for problems described in {IERC20-approve}. Emits an {Approval} event indicating the updated allowance. Requirements: - `spender` cannot be the zero address."
      },
      "initialize(address[],uint256[])": {
        "details": "Assumed that the length of tokenArray is reasonable, and that the tokens/amounts are ordered.",
        "params": {
          "_proportionsArray": "The amounts of the respective tokens that represent a (1) unit of the Fund Token.",
          "_tokenArray": "The token addresses that make the fund."
        }
      },
      "invest()": {
        "details": "The percentage is defined by the investingNumerator var."
      },
      "name()": {
        "details": "Returns the name of the token."
      },
      "setExitFee(bool)": {
        "details": "The fee is kept in the Fund for the other users, is not a dev fee.",
        "params": {
          "_withFee": "If the fee is active or not."
        }
      },
      "setInvestingNumerator(uint256)": {
        "params": {
          "_num": "The new numerator."
        }
      },
      "setVaults(address[])": {
        "details": "3 cases: same vault skip, zero address vault disable, different vault replace.",
        "params": {
          "_vaults": "The addresses of the new vaults."
        }
      },
      "symbol()": {
        "details": "Returns the symbol of the token, usually a shorter version of the name."
      },
      "totalSupply()": {
        "details": "See {IERC20-totalSupply}."
      },
      "transfer(address,uint256)": {
        "details": "See {IERC20-transfer}. Requirements: - `recipient` cannot be the zero address. - the caller must have a balance of at least `amount`."
      },
      "transferFrom(address,address,uint256)": {
        "details": "See {IERC20-transferFrom}. Emits an {Approval} event indicating the updated allowance. This is not required by the EIP. See the note at the beginning of {ERC20}. Requirements: - `sender` and `recipient` cannot be the zero address. - `sender` must have a balance of at least `amount`. - the caller must have allowance for ``sender``'s tokens of at least `amount`."
      },
      "unwrap(address)": {
        "details": "Charges a 0.005 fee if the variable withExitFee is true.",
        "params": {
          "_to": "The address that receives the Funds."
        },
        "returns": {
          "_0": "The amount of underlying funds transferred."
        }
      },
      "wrap(uint256,address)": {
        "details": "Should be called from a Helper contract for safety. Remnants will not be refunded.",
        "params": {
          "_amount": "Amount that wants to be minted.",
          "_to": "The address that receives the IFT."
        },
        "returns": {
          "_0": "The amount minted."
        }
      }
    },
    "title": "Index Funds.",
    "version": 1
  },
  "userdoc": {
    "kind": "user",
    "methods": {
      "controller()": {
        "notice": "The controller that created this Fund."
      },
      "estimateAmountIn(uint256)": {
        "notice": "Estimates the amounts of underlying tokens needed to mint the specified amount of IFT"
      },
      "estimateAmountOut(uint256[])": {
        "notice": "Estimates the max amount of IFT that can be minted from amounts given."
      },
      "getReserves()": {
        "notice": "Returns reserves held in the contract only."
      },
      "getTotalReserves()": {
        "notice": "Returns reserves held in the contract + investments"
      },
      "initialize(address[],uint256[])": {
        "notice": "This function is called at creation to set the variables of the Fund."
      },
      "invest()": {
        "notice": "Invests a percentage of the funds into their respective vaults."
      },
      "lastUnitPrices()": {
        "notice": "Price for a unit (1) of the Index Fund Token"
      },
      "proportions()": {
        "notice": "Initial amounts of the underlying tokens."
      },
      "setExitFee(bool)": {
        "notice": "@notice Set if an IndexFund has the 0.05 exit Fee."
      },
      "setInvestingNumerator(uint256)": {
        "notice": "Modify amount that is invested from an IndexFund"
      },
      "setVaults(address[])": {
        "notice": "Changes the vaults on which the fund's tokens are invested. Can be set to the 0 address to disable investing."
      },
      "sync()": {
        "notice": "Match reserves to balances"
      },
      "tokenLength()": {
        "notice": "The amount of tokens on this particular Fund."
      },
      "tokens()": {
        "notice": "The reference to the tokens on the pool."
      },
      "unwrap(address)": {
        "notice": "Burns the WFT and returns the proportionate underlying tokens to the user."
      },
      "wrap(uint256,address)": {
        "notice": "Takes the proportionate underlying tokens from the user to the contract and mints new IFT."
      }
    },
    "version": 1
  }
}