{
  "contractName": "TacoController",
  "abi": [
    {
      "anonymous": false,
      "inputs": [
        {
          "indexed": false,
          "internalType": "address[]",
          "name": "tokenArray",
          "type": "address[]"
        },
        {
          "indexed": false,
          "internalType": "address",
          "name": "fund",
          "type": "address"
        },
        {
          "indexed": false,
          "internalType": "uint256",
          "name": "",
          "type": "uint256"
        }
      ],
      "name": "FundCreated",
      "type": "event"
    },
    {
      "anonymous": false,
      "inputs": [
        {
          "indexed": false,
          "internalType": "address",
          "name": "fund",
          "type": "address"
        },
        {
          "indexed": false,
          "internalType": "bool",
          "name": "withFee",
          "type": "bool"
        }
      ],
      "name": "FundExitFee",
      "type": "event"
    },
    {
      "anonymous": false,
      "inputs": [
        {
          "indexed": false,
          "internalType": "address",
          "name": "fund",
          "type": "address"
        },
        {
          "indexed": false,
          "internalType": "address",
          "name": "oracle",
          "type": "address"
        }
      ],
      "name": "FundOracleChanged",
      "type": "event"
    },
    {
      "anonymous": false,
      "inputs": [
        {
          "indexed": false,
          "internalType": "address",
          "name": "fund",
          "type": "address"
        },
        {
          "indexed": false,
          "internalType": "address[]",
          "name": "vaultArray",
          "type": "address[]"
        }
      ],
      "name": "FundVaultsChanged",
      "type": "event"
    },
    {
      "anonymous": false,
      "inputs": [
        {
          "indexed": true,
          "internalType": "address",
          "name": "previousOwner",
          "type": "address"
        },
        {
          "indexed": true,
          "internalType": "address",
          "name": "newOwner",
          "type": "address"
        }
      ],
      "name": "OwnershipTransferred",
      "type": "event"
    },
    {
      "inputs": [
        {
          "internalType": "uint256",
          "name": "",
          "type": "uint256"
        }
      ],
      "name": "allFunds",
      "outputs": [
        {
          "internalType": "address",
          "name": "",
          "type": "address"
        }
      ],
      "stateMutability": "view",
      "type": "function"
    },
    {
      "inputs": [],
      "name": "claimOwnership",
      "outputs": [],
      "stateMutability": "nonpayable",
      "type": "function"
    },
    {
      "inputs": [],
      "name": "feeTo",
      "outputs": [
        {
          "internalType": "address",
          "name": "",
          "type": "address"
        }
      ],
      "stateMutability": "view",
      "type": "function"
    },
    {
      "inputs": [
        {
          "internalType": "bytes32",
          "name": "",
          "type": "bytes32"
        }
      ],
      "name": "fundData",
      "outputs": [
        {
          "internalType": "address",
          "name": "",
          "type": "address"
        }
      ],
      "stateMutability": "view",
      "type": "function"
    },
    {
      "inputs": [],
      "name": "owner",
      "outputs": [
        {
          "internalType": "address",
          "name": "",
          "type": "address"
        }
      ],
      "stateMutability": "view",
      "type": "function"
    },
    {
      "inputs": [
        {
          "internalType": "address",
          "name": "_proposedOwner",
          "type": "address"
        }
      ],
      "name": "proposeOwner",
      "outputs": [],
      "stateMutability": "nonpayable",
      "type": "function"
    },
    {
      "inputs": [],
      "name": "renounceOwnership",
      "outputs": [],
      "stateMutability": "nonpayable",
      "type": "function"
    },
    {
      "inputs": [
        {
          "internalType": "address[]",
          "name": "_tokenArray",
          "type": "address[]"
        }
      ],
      "name": "getFund",
      "outputs": [
        {
          "internalType": "address",
          "name": "fund",
          "type": "address"
        }
      ],
      "stateMutability": "view",
      "type": "function"
    },
    {
      "inputs": [],
      "name": "allFundsLength",
      "outputs": [
        {
          "internalType": "uint256",
          "name": "",
          "type": "uint256"
        }
      ],
      "stateMutability": "view",
      "type": "function"
    },
    {
      "inputs": [],
      "name": "fundCodeHash",
      "outputs": [
        {
          "internalType": "bytes32",
          "name": "",
          "type": "bytes32"
        }
      ],
      "stateMutability": "pure",
      "type": "function"
    },
    {
      "inputs": [
        {
          "internalType": "address[]",
          "name": "_tokenArray",
          "type": "address[]"
        },
        {
          "internalType": "uint256[]",
          "name": "_proportionsArray",
          "type": "uint256[]"
        }
      ],
      "name": "createFund",
      "outputs": [
        {
          "internalType": "address",
          "name": "fund",
          "type": "address"
        }
      ],
      "stateMutability": "nonpayable",
      "type": "function"
    },
    {
      "inputs": [
        {
          "internalType": "address",
          "name": "_feeTo",
          "type": "address"
        }
      ],
      "name": "setFeeTo",
      "outputs": [],
      "stateMutability": "nonpayable",
      "type": "function"
    },
    {
      "inputs": [
        {
          "internalType": "address[]",
          "name": "_tokenArray",
          "type": "address[]"
        },
        {
          "internalType": "address[]",
          "name": "_newVaults",
          "type": "address[]"
        }
      ],
      "name": "setVaults",
      "outputs": [],
      "stateMutability": "nonpayable",
      "type": "function"
    },
    {
      "inputs": [
        {
          "internalType": "address[]",
          "name": "_tokenArray",
          "type": "address[]"
        },
        {
          "internalType": "uint256",
          "name": "_numerator",
          "type": "uint256"
        }
      ],
      "name": "setInvestingNumerator",
      "outputs": [],
      "stateMutability": "nonpayable",
      "type": "function"
    },
    {
      "inputs": [
        {
          "internalType": "address[]",
          "name": "_tokenArray",
          "type": "address[]"
        },
        {
          "internalType": "bool",
          "name": "_withFee",
          "type": "bool"
        }
      ],
      "name": "switchExitFee",
      "outputs": [],
      "stateMutability": "nonpayable",
      "type": "function"
    }
  ],
  "bytecode": "0x608060405234801561001057600080fd5b50600061001b61006a565b600080546001600160a01b0319166001600160a01b0383169081178255604051929350917f8be0079c531659141344cd1fd0a4f28419497f9722a3daafe3b4186f6b6457e0908290a35061006e565b3390565b6146f08061007d6000396000f3fe60806040523480156200001157600080fd5b50600436106200010c5760003560e01c80638da5cb5b11620000a5578063e00e24c3116200006f578063e00e24c31462000442578063e7a2843114620004eb578063f46901ed146200050b578063fdfdf12f1462000534576200010c565b80638da5cb5b14620003e5578063b03c6d9714620003ef578063b5ed298a14620003f9578063ba9818221462000422576200010c565b80634e71e0c811620000e75780634e71e0c8146200030e578063699dd1fe1462000318578063715018a614620003bf578063793265b314620003c9576200010c565b8063017e7e58146200011157806302d19e9a14620001375780634c5bfbc01462000263575b600080fd5b6200011b62000660565b604080516001600160a01b039092168252519081900360200190f35b6200011b600480360360408110156200014f57600080fd5b810190602081018135600160201b8111156200016a57600080fd5b8201836020820111156200017d57600080fd5b803590602001918460208302840111600160201b831117156200019f57600080fd5b9190808060200260200160405190810160405280939291908181526020018383602002808284376000920191909152509295949360208101935035915050600160201b811115620001ef57600080fd5b8201836020820111156200020257600080fd5b803590602001918460208302840111600160201b831117156200022457600080fd5b9190808060200260200160405190810160405280939291908181526020018383602002808284376000920191909152509295506200066f945050505050565b6200030c600480360360408110156200027b57600080fd5b810190602081018135600160201b8111156200029657600080fd5b820183602082011115620002a957600080fd5b803590602001918460208302840111600160201b83111715620002cb57600080fd5b919080806020026020016040519081016040528093929190818152602001838360200280828437600092019190915250929550505050351515905062000b07565b005b6200030c62000ce5565b6200011b600480360360208110156200033057600080fd5b810190602081018135600160201b8111156200034b57600080fd5b8201836020820111156200035e57600080fd5b803590602001918460208302840111600160201b831117156200038057600080fd5b91908080602002602001604051908101604052809392919081815260200183836020028082843760009201919091525092955062000da9945050505050565b6200030c62000e38565b620003d362000eea565b60408051918252519081900360200190f35b6200011b62000ef0565b620003d362000eff565b6200030c600480360360208110156200041157600080fd5b50356001600160a01b031662000f33565b6200011b600480360360208110156200043a57600080fd5b503562001010565b6200030c600480360360408110156200045a57600080fd5b810190602081018135600160201b8111156200047557600080fd5b8201836020820111156200048857600080fd5b803590602001918460208302840111600160201b83111715620004aa57600080fd5b91908080602002602001604051908101604052809392919081815260200183836020028082843760009201919091525092955050913592506200102b915050565b6200011b600480360360208110156200050357600080fd5b5035620011c2565b6200030c600480360360208110156200052357600080fd5b50356001600160a01b0316620011ea565b6200030c600480360360408110156200054c57600080fd5b810190602081018135600160201b8111156200056757600080fd5b8201836020820111156200057a57600080fd5b803590602001918460208302840111600160201b831117156200059c57600080fd5b9190808060200260200160405190810160405280939291908181526020018383602002808284376000920191909152509295949360208101935035915050600160201b811115620005ec57600080fd5b820183602082011115620005ff57600080fd5b803590602001918460208302840111600160201b831117156200062157600080fd5b91908080602002602001604051908101604052809392919081815260200183836020028082843760009201919091525092955062001268945050505050565b6002546001600160a01b031681565b60006200067b620014c4565b6000546001600160a01b03908116911614620006cd576040805162461bcd60e51b815260206004820181905260248201526000805160206200469b833981519152604482015290519081900360640190fd5b60015b83518110156200082a576000848281518110620006e957fe5b6020026020010151905060008483815181106200070257fe5b6020026020010151905060006001840390505b600081121580156200074c5750826001600160a01b03168782815181106200073957fe5b60200260200101516001600160a01b0316115b15620007d1578681815181106200075f57fe5b60200260200101518782600101815181106200077757fe5b60200260200101906001600160a01b031690816001600160a01b031681525050858181518110620007a457fe5b6020026020010151868260010181518110620007bc57fe5b60209081029190910101526000190162000715565b82878260010181518110620007e257fe5b60200260200101906001600160a01b031690816001600160a01b031681525050818682600101815181106200081357fe5b6020908102919091010152505050600101620006d0565b5060008360405160200180828051906020019060200280838360005b838110156200086057818101518382015260200162000846565b50506040805193909501838103601f190184528552505080516020918201206000818152600390925292902054919450506001600160a01b0316159150620008f19050576040805162461bcd60e51b815260206004820152601860248201527f5461636f46696e616e63653a2046554e445f4558495354530000000000000000604482015290519081900360640190fd5b6060604051806020016200090590620015b8565b6020820181038252601f19601f820116604052509050818151602083016000f59250826001600160a01b0316637fbbe46f86866040518363ffffffff1660e01b8152600401808060200180602001838103835285818151815260200191508051906020019060200280838360005b838110156200098d57818101518382015260200162000973565b50505050905001838103825284818151815260200191508051906020019060200280838360005b83811015620009ce578181015183820152602001620009b4565b50505050905001945050505050600060405180830381600087803b158015620009f657600080fd5b505af115801562000a0b573d6000803e3d6000fd5b505050600083815260036020908152604080832080546001600160a01b0389166001600160a01b03199182168117909255600480546001810182558187527f8a35acfbc15ff81a39ae7d344fd709f28e8600b4aa8c65c6b64bfe7fe36bd19b01805490921683179091555482518085019290925291810182905260608082528a519082015289517f7192d3bbcdc86c856ec4ec3c223842f303254771bc9fdcd7ccee6ad686c3c4b395508a948994839260808401928883019291909102908190849084905b8381101562000aea57818101518382015260200162000ad0565b5050505090500194505050505060405180910390a1505092915050565b62000b11620014c4565b6000546001600160a01b0390811691161462000b63576040805162461bcd60e51b815260206004820181905260248201526000805160206200469b833981519152604482015290519081900360640190fd5b62000b6e82620014c8565b91506000600360008460405160200180828051906020019060200280838360005b8381101562000ba957818101518382015260200162000b8f565b50506040805193909501838103601f19018452855250508051602091820120865285019590955292909201600020546001600160a01b031693505050811515905062000c33576040805162461bcd60e51b8152602060048201526014602482015273151858dbd19a5b985b98d94e881393d7d195539160621b604482015290519081900360640190fd5b6000819050806001600160a01b0316633d191366846040518263ffffffff1660e01b8152600401808215158152602001915050600060405180830381600087803b15801562000c8157600080fd5b505af115801562000c96573d6000803e3d6000fd5b5050604080516001600160a01b0386168152861515602082015281517f6b6d324ffcc5954761b106b4c926d885b26c5d7e047b79917312a06247a536059450908190039091019150a150505050565b6001546001600160a01b0316331462000d45576040805162461bcd60e51b815260206004820152601860248201527f4552524f525f4e4f545f50524f504f5345445f4f574e45520000000000000000604482015290519081900360640190fd5b600154600080546040516001600160a01b0393841693909116917f8be0079c531659141344cd1fd0a4f28419497f9722a3daafe3b4186f6b6457e091a360018054600080546001600160a01b03199081166001600160a01b03841617909155169055565b600062000db682620014c8565b9150600360008360405160200180828051906020019060200280838360005b8381101562000def57818101518382015260200162000dd5565b5050505090500191505060405160208183030381529060405280519060200120815260200190815260200160002060009054906101000a90046001600160a01b03169050919050565b62000e42620014c4565b6000546001600160a01b0390811691161462000e94576040805162461bcd60e51b815260206004820181905260248201526000805160206200469b833981519152604482015290519081900360640190fd5b600080546040516001600160a01b03909116907f8be0079c531659141344cd1fd0a4f28419497f9722a3daafe3b4186f6b6457e0908390a3600080546001600160a01b0319908116909155600180549091169055565b60045490565b6000546001600160a01b031690565b60006040518060200162000f1390620015b8565b6020820181038252601f19601f8201166040525080519060200120905090565b62000f3d620014c4565b6000546001600160a01b0390811691161462000f8f576040805162461bcd60e51b815260206004820181905260248201526000805160206200469b833981519152604482015290519081900360640190fd5b336001600160a01b038216141562000fee576040805162461bcd60e51b815260206004820152601a60248201527f4552524f525f43414c4c45525f414c52454144595f4f574e4552000000000000604482015290519081900360640190fd5b600180546001600160a01b0319166001600160a01b0392909216919091179055565b6003602052600090815260409020546001600160a01b031681565b62001035620014c4565b6000546001600160a01b0390811691161462001087576040805162461bcd60e51b815260206004820181905260248201526000805160206200469b833981519152604482015290519081900360640190fd5b6200109282620014c8565b91506000600360008460405160200180828051906020019060200280838360005b83811015620010cd578181015183820152602001620010b3565b50506040805193909501838103601f19018452855250508051602091820120865285019590955292909201600020546001600160a01b031693505050811515905062001157576040805162461bcd60e51b8152602060048201526014602482015273151858dbd19a5b985b98d94e881393d7d195539160621b604482015290519081900360640190fd5b6000819050806001600160a01b031663f58c5e70846040518263ffffffff1660e01b815260040180828152602001915050600060405180830381600087803b158015620011a357600080fd5b505af1158015620011b8573d6000803e3d6000fd5b5050505050505050565b60048181548110620011d057fe5b6000918252602090912001546001600160a01b0316905081565b620011f4620014c4565b6000546001600160a01b0390811691161462001246576040805162461bcd60e51b815260206004820181905260248201526000805160206200469b833981519152604482015290519081900360640190fd5b600280546001600160a01b0319166001600160a01b0392909216919091179055565b62001272620014c4565b6000546001600160a01b03908116911614620012c4576040805162461bcd60e51b815260206004820181905260248201526000805160206200469b833981519152604482015290519081900360640190fd5b620012cf82620014c8565b91506000600360008460405160200180828051906020019060200280838360005b838110156200130a578181015183820152602001620012f0565b50506040805193909501838103601f19018452855250508051602091820120865285019590955292909201600020546001600160a01b031693505050811515905062001394576040805162461bcd60e51b8152602060048201526014602482015273151858dbd19a5b985b98d94e881393d7d195539160621b604482015290519081900360640190fd5b604051632bf7d7ad60e11b815260206004820181815284516024840152845184936001600160a01b038516936357efaf5a93889390928392604490910191818601910280838360005b83811015620013f7578181015183820152602001620013dd565b5050505090500192505050600060405180830381600087803b1580156200141d57600080fd5b505af115801562001432573d6000803e3d6000fd5b505050507f93281d873f1d16b2b6ef387ec2e26e1ee3758676c5a827200a94d0ae71e72606828460405180836001600160a01b0316815260200180602001828103825283818151815260200191508051906020019060200280838360005b83811015620014aa57818101518382015260200162001490565b50505050905001935050505060405180910390a150505050565b3390565b606060015b8251811015620015b1576000838281518110620014e657fe5b6020026020010151905060006001830390505b60008112158015620015305750816001600160a01b03168582815181106200151d57fe5b60200260200101516001600160a01b0316115b156200157d578481815181106200154357fe5b60200260200101518582600101815181106200155b57fe5b6001600160a01b039092166020928302919091019091015260001901620014f9565b818582600101815181106200158e57fe5b6001600160a01b03909216602092830291909101909101525050600101620014cd565b5090919050565b6130d480620015c78339019056fe60806040526103206009556001600e553480156200001c57600080fd5b506040518060400160405280601081526020016f24b73232bc10233ab732102a37b5b2b760811b8152506040518060400160405280600381526020016212519560ea1b81525081600390805190602001906200007a929190620000b9565b50805162000090906004906020840190620000b9565b505060058054601260ff1990911617610100600160a81b03191661010033021790555062000155565b828054600181600116156101000203166002900490600052602060002090601f016020900481019282601f10620000fc57805160ff19168380011785556200012c565b828001600101855582156200012c579182015b828111156200012c5782518255916020019190600101906200010f565b506200013a9291506200013e565b5090565b5b808211156200013a57600081556001016200013f565b612f6f80620001656000396000f3fe608060405234801561001057600080fd5b50600436106101e55760003560e01c806357efaf5a1161010f578063a9059cbb116100a2578063e8b5e51f11610071578063e8b5e51f14610825578063f58c5e701461082d578063f77c47911461084a578063fff6cae91461086e576101e5565b8063a9059cbb146107bb578063dd62ed3e146107e7578063de66341e14610815578063e6682caf1461081d576101e5565b80637fbbe46f116100de5780637fbbe46f1461065c57806395d89b411461077f5780639d63848a14610787578063a457c2d71461078f576101e5565b806357efaf5a146105675780635bfaa4d21461060857806370a082311461061057806375f26e6314610636576101e5565b8063242693d311610187578063395093511161015657806339509351146104f55780633aa3cd4a146105215780633d1913661461052957806340685b941461054a576101e5565b8063242693d31461038e57806327e45c2c146103e6578063313ce56714610436578063330b1de814610454576101e5565b8063131f5ffe116101c3578063131f5ffe1461030a57806313bac8201461031257806318160ddd1461035057806323b872dd14610358576101e5565b806306fdde03146101ea5780630902f1ac14610267578063095ea7b3146102ca575b600080fd5b6101f2610876565b6040805160208082528351818301528351919283929083019185019080838360005b8381101561022c578181015183820152602001610214565b50505050905090810190601f1680156102595780820380516001836020036101000a031916815260200191505b509250505060405180910390f35b61026f61090c565b6040518080602001838152602001828103825284818151815260200191508051906020019060200280838360005b838110156102b557818101518382015260200161029d565b50505050905001935050505060405180910390f35b6102f6600480360360408110156102e057600080fd5b506001600160a01b03813516906020013561096f565b604080519115158252519081900360200190f35b6102f661098d565b61033e6004803603604081101561032857600080fd5b50803590602001356001600160a01b0316610996565b60408051918252519081900360200190f35b61033e610ced565b6102f66004803603606081101561036e57600080fd5b506001600160a01b03813581169160208101359091169060400135610cf3565b610396610d7b565b60408051602080825283518183015283519192839290830191858101910280838360005b838110156103d25781810151838201526020016103ba565b505050509050019250505060405180910390f35b61040c600480360360208110156103fc57600080fd5b50356001600160a01b0316610e03565b6040805193151584526001600160a01b039092166020840152151582820152519081900360600190f35b61043e610e33565b6040805160ff9092168252519081900360200190f35b61033e6004803603602081101561046a57600080fd5b810190602081018135600160201b81111561048457600080fd5b82018360208201111561049657600080fd5b803590602001918460208302840111600160201b831117156104b757600080fd5b919080806020026020016040519081016040528093929190818152602001838360200280828437600092019190915250929550610e3c945050505050565b6102f66004803603604081101561050b57600080fd5b506001600160a01b038135169060200135610f04565b610396610f52565b6105486004803603602081101561053f57600080fd5b50351515610fa9565b005b6103966004803603602081101561056057600080fd5b5035611012565b6105486004803603602081101561057d57600080fd5b810190602081018135600160201b81111561059757600080fd5b8201836020820111156105a957600080fd5b803590602001918460208302840111600160201b831117156105ca57600080fd5b91908080602002602001604051908101604052809392919081815260200183836020028082843760009201919091525092955061110d945050505050565b61033e6114cd565b61033e6004803603602081101561062657600080fd5b50356001600160a01b03166114d3565b6103966004803603602081101561064c57600080fd5b50356001600160a01b03166114ee565b6105486004803603604081101561067257600080fd5b810190602081018135600160201b81111561068c57600080fd5b82018360208201111561069e57600080fd5b803590602001918460208302840111600160201b831117156106bf57600080fd5b9190808060200260200160405190810160405280939291908181526020018383602002808284376000920191909152509295949360208101935035915050600160201b81111561070e57600080fd5b82018360208201111561072057600080fd5b803590602001918460208302840111600160201b8311171561074157600080fd5b91908080602002602001604051908101604052809392919081815260200183836020028082843760009201919091525092955061178b945050505050565b6101f26119b2565b610396611a13565b6102f6600480360360408110156107a557600080fd5b506001600160a01b038135169060200135611a74565b6102f6600480360360408110156107d157600080fd5b506001600160a01b038135169060200135611adc565b61033e600480360360408110156107fd57600080fd5b506001600160a01b0381358116916020013516611af0565b61033e611b1b565b610396611b21565b610548611b39565b6105486004803603602081101561084357600080fd5b5035611ca7565b610852611d10565b604080516001600160a01b039092168252519081900360200190f35b610548611d24565b60038054604080516020601f60026000196101006001881615020190951694909404938401819004810282018101909252828152606093909290918301828280156109025780601f106108d757610100808354040283529160200191610902565b820191906000526020600020905b8154815290600101906020018083116108e557829003601f168201915b5050505050905090565b60606000600c600d548180548060200260200160405190810160405280929190818152602001828054801561096057602002820191906000526020600020905b81548152602001906001019080831161094c575b50505050509150915091509091565b600061098361097c611e37565b8484611e3b565b5060015b92915050565b600a5460ff1681565b6000600e546001146109e3576040805162461bcd60e51b8152602060048201526011602482015270125b99195e119d5b990e881313d0d2d151607a1b604482015290519081900360640190fd5b6000600e5560065460609067ffffffffffffffff81118015610a0457600080fd5b50604051908082528060200260200182016040528015610a2e578160200160208202803683370190505b50905060005b600654811015610c4557600060078281548110610a4d57fe5b60009182526020918290200154604080516370a0823160e01b815230600482015290516001600160a01b03909216926370a0823192602480840193829003018186803b158015610a9c57600080fd5b505afa158015610ab0573d6000803e3d6000fd5b505050506040513d6020811015610ac657600080fd5b5051600c8054919250600091610afb919085908110610ae157fe5b906000526020600020015483611f2790919063ffffffff16565b9050610b05610ced565b610b6257610b45670de0b6b3a7640000610b3f60088681548110610b2557fe5b90600052602060002001548a611f8490919063ffffffff16565b90611fdd565b848481518110610b5157fe5b602002602001018181525050610bc4565b610bab610b6d610ced565b610b3f610ba484610b9e60078981548110610b8457fe5b6000918252602090912001546001600160a01b0316612044565b90611f27565b8a90611f84565b848481518110610bb757fe5b6020026020010181815250505b838381518110610bd057fe5b6020026020010151811015610c21576040805162461bcd60e51b81526020600482015260126024820152716e6f7420656e6f75676820616d6f756e747360701b604482015290519081900360640190fd5b81600c8481548110610c2f57fe5b6000918252602090912001555050600101610a34565b5043600d55610c548385612243565b7fb2647a168af5ee4716582e5446f41877dce940cd2bd550bcda1e2027414d3d8383858360405180846001600160a01b0316815260200183815260200180602001828103825283818151815260200191508051906020019060200280838360005b83811015610ccd578181015183820152602001610cb5565b5050505090500194505050505060405180910390a150506001600e555090565b60025490565b6000610d00848484612333565b610d7084610d0c611e37565b610d6b85604051806060016040528060288152602001612e23602891396001600160a01b038a16600090815260016020526040812090610d4a611e37565b6001600160a01b03168152602081019190915260400160002054919061248e565b611e3b565b5060015b9392505050565b606060065467ffffffffffffffff81118015610d9657600080fd5b50604051908082528060200260200182016040528015610dc0578160200160208202803683370190505b50905060005b600654811015610dff57610de060078281548110610b8457fe5b828281518110610dec57fe5b6020908102919091010152600101610dc6565b5090565b600b6020526000908152604090205460ff808216916001600160a01b0361010082041691600160a81b9091041683565b60055460ff1690565b6000600654825114610e4d57600080fd5b60001960005b600654811015610efd576000610e67610ced565b610ebb57610eb460088381548110610e7b57fe5b9060005260206000200154610b3f670de0b6b3a7640000888681518110610e9e57fe5b6020026020010151611f8490919063ffffffff16565b9050610ee8565b610ee5610ece60078481548110610b8457fe5b610b3f610ed9610ced565b888681518110610e9e57fe5b90505b82811015610ef4578092505b50600101610e53565b5092915050565b6000610983610f11611e37565b84610d6b8560016000610f22611e37565b6001600160a01b03908116825260208083019390935260409182016000908120918c168152925290205490612525565b6060600880548060200260200160405190810160405280929190818152602001828054801561090257602002820191906000526020600020905b815481526020019060010190808311610f8c575050505050905090565b60055461010090046001600160a01b03163314610fff576040805162461bcd60e51b815260206004820152600f60248201526e2a30b1b79d102327a92124a22222a760891b604482015290519081900360640190fd5b600a805460ff1916911515919091179055565b60608060065467ffffffffffffffff8111801561102e57600080fd5b50604051908082528060200260200182016040528015611058578160200160208202803683370190505b50905060005b600654811015610efd57611070610ced565b6110c7576110aa670de0b6b3a7640000610b3f6008848154811061109057fe5b906000526020600020015487611f8490919063ffffffff16565b8282815181106110b657fe5b602002602001018181525050611105565b6110ec6110d2610ced565b610b3f6110e560078581548110610b8457fe5b8790611f84565b8282815181106110f857fe5b6020026020010181815250505b60010161105e565b60055461010090046001600160a01b03163314611163576040805162461bcd60e51b815260206004820152600f60248201526e2a30b1b79d102327a92124a22222a760891b604482015290519081900360640190fd5b6006548151146111b0576040805162461bcd60e51b81526020600482015260136024820152725461636f3a20696e76616c696420617272617960681b604482015290519081900360640190fd5b60005b6006548110156114c9576000600782815481106111cc57fe5b60009182526020808320909101546001600160a01b03908116808452600b90925260408320548651929450610100900416919085908590811061120b57fe5b60200260200101516001600160a01b031614156112cc576001600160a01b0382166000908152600b6020526040902054600160a81b900460ff16156112c557806001600160a01b031663853828b66040518163ffffffff1660e01b8152600401600060405180830381600087803b15801561128557600080fd5b505af1158015611299573d6000803e3d6000fd5b5050506001600160a01b0383166000908152600b602052604090208054610100600160b01b0319169055505b50506114c1565b600783815481106112d957fe5b60009182526020909120015484516001600160a01b03909116908590859081106112ff57fe5b60200260200101516001600160a01b0316636f307dc36040518163ffffffff1660e01b815260040160206040518083038186803b15801561133f57600080fd5b505afa158015611353573d6000803e3d6000fd5b505050506040513d602081101561136957600080fd5b50516001600160a01b0316146113b6576040805162461bcd60e51b815260206004820152600d60248201526c1a5b9d985b1a59081d985d5b1d609a1b604482015290519081900360640190fd5b806001600160a01b03168484815181106113cc57fe5b60200260200101516001600160a01b0316146114be576001600160a01b0382166000908152600b6020526040902054600160a81b900460ff161561145e57806001600160a01b031663853828b66040518163ffffffff1660e01b8152600401600060405180830381600087803b15801561144557600080fd5b505af1158015611459573d6000803e3d6000fd5b505050505b83838151811061146a57fe5b6020908102919091018101516001600160a01b038085166000908152600b9093526040909220805460ff60a81b199390921661010002610100600160a81b03199092169190911791909116600160a81b1790555b50505b6001016111b3565b5050565b60095481565b6001600160a01b031660009081526020819052604090205490565b6060600e5460011461153b576040805162461bcd60e51b8152602060048201526011602482015270125b99195e119d5b990e881313d0d2d151607a1b604482015290519081900360640190fd5b6000600e81905561154b306114d3565b9050606060065467ffffffffffffffff8111801561156857600080fd5b50604051908082528060200260200182016040528015611592578160200160208202803683370190505b50905060005b6006548110156116df5760006115b460078381548110610b8457fe5b905060006115cd6115c3610ced565b610b3f8785611f84565b600a5490915060ff16156115ef576115ec6103e8610b3f836005611f84565b90505b61161b600784815481106115ff57fe5b6000918252602090912001546001600160a01b0316888361257f565b84848151811061162757fe5b6020026020010181815250506007838154811061164057fe5b60009182526020918290200154604080516370a0823160e01b815230600482015290516001600160a01b03909216926370a0823192602480840193829003018186803b15801561168f57600080fd5b505afa1580156116a3573d6000803e3d6000fd5b505050506040513d60208110156116b957600080fd5b5051600c8054859081106116c957fe5b6000918252602090912001555050600101611598565b506116ea30836127e5565b43600d819055507ff40cc3f99f6e881a1411f675cf8b05609e2e48f0803e2f483b160aa793562daa84838360405180846001600160a01b0316815260200183815260200180602001828103825283818151815260200191508051906020019060200280838360005b8381101561176a578181015183820152602001611752565b5050505090500194505050505060405180910390a16001600e559392505050565b60055461010090046001600160a01b031633146117e1576040805162461bcd60e51b815260206004820152600f60248201526e2a30b1b79d102327a92124a22222a760891b604482015290519081900360640190fd5b8151600681905581511461183c576040805162461bcd60e51b815260206004820152601960248201527f496e64657846756e643a20696e76616c69642061727261797300000000000000604482015290519081900360640190fd5b60005b60065481101561199957600b600084838151811061185957fe5b6020908102919091018101516001600160a01b031682528101919091526040016000205460ff16156118d2576040805162461bcd60e51b815260206004820152601e60248201527f5772617070656446756e643a206475706c696361746520616464726573730000604482015290519081900360640190fd5b60078382815181106118e057fe5b60209081029190910181015182546001808201855560009485529284200180546001600160a01b0319166001600160a01b03909216919091179055600c805480830182559083527fdf6966c971051c3d54ec59162606531493a51404a002842f56009d7e5cf4a8c70182905584519091600b9186908590811061195f57fe5b6020908102919091018101516001600160a01b03168252810191909152604001600020805460ff191691151591909117905560010161183f565b5080516119ad906008906020840190612cd2565b505050565b60048054604080516020601f60026000196101006001881615020190951694909404938401819004810282018101909252828152606093909290918301828280156109025780601f106108d757610100808354040283529160200191610902565b6060600780548060200260200160405190810160405280929190818152602001828054801561090257602002820191906000526020600020905b81546001600160a01b03168152600190910190602001808311611a4d575050505050905090565b6000610983611a81611e37565b84610d6b85604051806060016040528060258152602001612f156025913960016000611aab611e37565b6001600160a01b03908116825260208083019390935260409182016000908120918d1681529252902054919061248e565b6000610983611ae9611e37565b8484612333565b6001600160a01b03918216600090815260016020908152604080832093909416825291909152205490565b60065481565b6060611b34670de0b6b3a7640000611012565b905090565b60005b600654811015611c9c57611b4e612d19565b600b600060078481548110611b5f57fe5b60009182526020808320909101546001600160a01b0390811684528382019490945260409283019091208251606081018452905460ff80821615158352610100820490951692820192909252600160a81b90910490921615801591830191909152909150611c93576000611bfb6103e8610b3f600954600c8781548110611be257fe5b9060005260206000200154611f8490919063ffffffff16565b9050611c2f82602001518260078681548110611c1357fe5b6000918252602090912001546001600160a01b031691906128e1565b81602001516001600160a01b031663b6b55f25826040518263ffffffff1660e01b815260040180828152602001915050600060405180830381600087803b158015611c7957600080fd5b505af1158015611c8d573d6000803e3d6000fd5b50505050505b50600101611b3c565b50611ca5611d24565b565b60055461010090046001600160a01b03163314611cfd576040805162461bcd60e51b815260206004820152600f60248201526e2a30b1b79d102327a92124a22222a760891b604482015290519081900360640190fd5b6103e88110611d0b57600080fd5b600955565b60055461010090046001600160a01b031681565b600e54600114611d6f576040805162461bcd60e51b8152602060048201526011602482015270125b99195e119d5b990e881313d0d2d151607a1b604482015290519081900360640190fd5b6000600e8190555b600654811015611e2b5760078181548110611d8e57fe5b60009182526020918290200154604080516370a0823160e01b815230600482015290516001600160a01b03909216926370a0823192602480840193829003018186803b158015611ddd57600080fd5b505afa158015611df1573d6000803e3d6000fd5b505050506040513d6020811015611e0757600080fd5b5051600c805483908110611e1757fe5b600091825260209091200155600101611d77565b5043600d556001600e55565b3390565b6001600160a01b038316611e805760405162461bcd60e51b8152600401808060200182810382526024815260200180612e916024913960400191505060405180910390fd5b6001600160a01b038216611ec55760405162461bcd60e51b8152600401808060200182810382526022815260200180612d946022913960400191505060405180910390fd5b6001600160a01b03808416600081815260016020908152604080832094871680845294825291829020859055815185815291517f8c5be1e5ebec7d5bd14f71427d1e84f3dd0314c0f7b2291e5b200ac8c7c3b9259281900390910190a3505050565b600082821115611f7e576040805162461bcd60e51b815260206004820152601e60248201527f536166654d6174683a207375627472616374696f6e206f766572666c6f770000604482015290519081900360640190fd5b50900390565b600082611f9357506000610987565b82820282848281611fa057fe5b0414610d745760405162461bcd60e51b8152600401808060200182810382526021815260200180612e026021913960400191505060405180910390fd5b6000808211612033576040805162461bcd60e51b815260206004820152601a60248201527f536166654d6174683a206469766973696f6e206279207a65726f000000000000604482015290519081900360640190fd5b81838161203c57fe5b049392505050565b600080826001600160a01b03166370a08231306040518263ffffffff1660e01b815260040180826001600160a01b0316815260200191505060206040518083038186803b15801561209457600080fd5b505afa1580156120a8573d6000803e3d6000fd5b505050506040513d60208110156120be57600080fd5b505190506120ca612d19565b506001600160a01b038084166000908152600b60209081526040918290208251606081018452905460ff80821615158352610100820490951692820192909252600160a81b90910490921615801591830191909152610efd57600081602001516001600160a01b03166370a08231306040518263ffffffff1660e01b815260040180826001600160a01b0316815260200191505060206040518083038186803b15801561217657600080fd5b505afa15801561218a573d6000803e3d6000fd5b505050506040513d60208110156121a057600080fd5b505160208381015160408051631df1ee3f60e21b8152905193945061223a9361223393670de0b6b3a764000093610b3f936001600160a01b03909116926377c7b8fc92600480840193919291829003018186803b15801561220057600080fd5b505afa158015612214573d6000803e3d6000fd5b505050506040513d602081101561222a57600080fd5b50518590611f84565b8490612525565b95945050505050565b6001600160a01b03821661229e576040805162461bcd60e51b815260206004820152601f60248201527f45524332303a206d696e7420746f20746865207a65726f206164647265737300604482015290519081900360640190fd5b6122aa600083836119ad565b6002546122b79082612525565b6002556001600160a01b0382166000908152602081905260409020546122dd9082612525565b6001600160a01b0383166000818152602081815260408083209490945583518581529351929391927fddf252ad1be2c89b69c2b068fc378daa952ba7f163c4a11628f55a4df523b3ef9281900390910190a35050565b6001600160a01b0383166123785760405162461bcd60e51b8152600401808060200182810382526025815260200180612e6c6025913960400191505060405180910390fd5b6001600160a01b0382166123bd5760405162461bcd60e51b8152600401808060200182810382526023815260200180612d4f6023913960400191505060405180910390fd5b6123c88383836119ad565b61240581604051806060016040528060268152602001612db6602691396001600160a01b038616600090815260208190526040902054919061248e565b6001600160a01b0380851660009081526020819052604080822093909355908416815220546124349082612525565b6001600160a01b038084166000818152602081815260409182902094909455805185815290519193928716927fddf252ad1be2c89b69c2b068fc378daa952ba7f163c4a11628f55a4df523b3ef92918290030190a3505050565b6000818484111561251d5760405162461bcd60e51b81526004018080602001828103825283818151815260200191508051906020019080838360005b838110156124e25781810151838201526020016124ca565b50505050905090810190601f16801561250f5780820380516001836020036101000a031916815260200191505b509250505060405180910390fd5b505050900390565b600082820183811015610d74576040805162461bcd60e51b815260206004820152601b60248201527f536166654d6174683a206164646974696f6e206f766572666c6f770000000000604482015290519081900360640190fd5b600080846001600160a01b03166370a08231306040518263ffffffff1660e01b815260040180826001600160a01b0316815260200191505060206040518083038186803b1580156125cf57600080fd5b505afa1580156125e3573d6000803e3d6000fd5b505050506040513d60208110156125f957600080fd5b50519050828110156127c85761260d612d19565b506001600160a01b038086166000908152600b602090815260408083208151606081018352905460ff80821615158352610100820490961693820193909352600160a81b90920490931615159281019290925261266a8584611f27565b905060006126ec83602001516001600160a01b03166377c7b8fc6040518163ffffffff1660e01b815260040160206040518083038186803b1580156126ae57600080fd5b505afa1580156126c2573d6000803e3d6000fd5b505050506040513d60208110156126d857600080fd5b5051610b3f84670de0b6b3a7640000611f84565b905082602001516001600160a01b0316632e1a7d4d826040518263ffffffff1660e01b815260040180828152602001915050600060405180830381600087803b15801561273857600080fd5b505af115801561274c573d6000803e3d6000fd5b5050604080516370a0823160e01b815230600482015290516001600160a01b038c1693506370a0823192506024808301926020929190829003018186803b15801561279657600080fd5b505afa1580156127aa573d6000803e3d6000fd5b505050506040513d60208110156127c057600080fd5b505195505050505b6127dc6001600160a01b03861685856129f4565b50909392505050565b6001600160a01b03821661282a5760405162461bcd60e51b8152600401808060200182810382526021815260200180612e4b6021913960400191505060405180910390fd5b612836826000836119ad565b61287381604051806060016040528060228152602001612d72602291396001600160a01b038516600090815260208190526040902054919061248e565b6001600160a01b0383166000908152602081905260409020556002546128999082611f27565b6002556040805182815290516000916001600160a01b038516917fddf252ad1be2c89b69c2b068fc378daa952ba7f163c4a11628f55a4df523b3ef9181900360200190a35050565b801580612967575060408051636eb1769f60e11b81523060048201526001600160a01b03848116602483015291519185169163dd62ed3e91604480820192602092909190829003018186803b15801561293957600080fd5b505afa15801561294d573d6000803e3d6000fd5b505050506040513d602081101561296357600080fd5b5051155b6129a25760405162461bcd60e51b8152600401808060200182810382526036815260200180612edf6036913960400191505060405180910390fd5b604080516001600160a01b038416602482015260448082018490528251808303909101815260649091019091526020810180516001600160e01b031663095ea7b360e01b1790526119ad908490612a42565b604080516001600160a01b038416602482015260448082018490528251808303909101815260649091019091526020810180516001600160e01b031663a9059cbb60e01b1790526119ad9084905b6060612a97826040518060400160405280602081526020017f5361666545524332303a206c6f772d6c6576656c2063616c6c206661696c6564815250856001600160a01b0316612af39092919063ffffffff16565b8051909150156119ad57808060200190516020811015612ab657600080fd5b50516119ad5760405162461bcd60e51b815260040180806020018281038252602a815260200180612eb5602a913960400191505060405180910390fd5b6060612b028484600085612b0a565b949350505050565b606082471015612b4b5760405162461bcd60e51b8152600401808060200182810382526026815260200180612ddc6026913960400191505060405180910390fd5b612b5485612c66565b612ba5576040805162461bcd60e51b815260206004820152601d60248201527f416464726573733a2063616c6c20746f206e6f6e2d636f6e7472616374000000604482015290519081900360640190fd5b60006060866001600160a01b031685876040518082805190602001908083835b60208310612be45780518252601f199092019160209182019101612bc5565b6001836020036101000a03801982511681845116808217855250505050505090500191505060006040518083038185875af1925050503d8060008114612c46576040519150601f19603f3d011682016040523d82523d6000602084013e612c4b565b606091505b5091509150612c5b828286612c6c565b979650505050505050565b3b151590565b60608315612c7b575081610d74565b825115612c8b5782518084602001fd5b60405162461bcd60e51b81526020600482018181528451602484015284518593919283926044019190850190808383600083156124e25781810151838201526020016124ca565b828054828255906000526020600020908101928215612d0d579160200282015b82811115612d0d578251825591602001919060010190612cf2565b50610dff929150612d39565b604080516060810182526000808252602082018190529181019190915290565b5b80821115610dff5760008155600101612d3a56fe45524332303a207472616e7366657220746f20746865207a65726f206164647265737345524332303a206275726e20616d6f756e7420657863656564732062616c616e636545524332303a20617070726f766520746f20746865207a65726f206164647265737345524332303a207472616e7366657220616d6f756e7420657863656564732062616c616e6365416464726573733a20696e73756666696369656e742062616c616e636520666f722063616c6c536166654d6174683a206d756c7469706c69636174696f6e206f766572666c6f7745524332303a207472616e7366657220616d6f756e74206578636565647320616c6c6f77616e636545524332303a206275726e2066726f6d20746865207a65726f206164647265737345524332303a207472616e736665722066726f6d20746865207a65726f206164647265737345524332303a20617070726f76652066726f6d20746865207a65726f20616464726573735361666545524332303a204552433230206f7065726174696f6e20646964206e6f7420737563636565645361666545524332303a20617070726f76652066726f6d206e6f6e2d7a65726f20746f206e6f6e2d7a65726f20616c6c6f77616e636545524332303a2064656372656173656420616c6c6f77616e63652062656c6f77207a65726fa264697066735822122014c2d19ab4be86b17888834902451a19c30f20152ca9de4e3cd68e6a8ec430c564736f6c634300070000334f776e61626c653a2063616c6c6572206973206e6f7420746865206f776e6572a2646970667358221220fc10f3c2e8ffa15ce416780bbd2cfe55810dd21599f9aefb0fd6dd1c01ff303c64736f6c63430007000033",
  "immutableReferences": {},
  "source": "// SPDX-License-Identifier: MIT\r\n\r\npragma solidity ^0.7.0;\r\n\r\nimport './libraries/Ownable.sol';\r\nimport './libraries/TacoLibrary.sol';\r\nimport './interfaces/ITacoFactory.sol';\r\nimport './IndexFundV1.sol';\r\n\r\n/// @author Kindynos\r\n/// @title The contract that deploys and controls IndexFunds.\r\ncontract TacoController is ITacoFactory, Ownable {\r\n    address public override feeTo;\r\n\r\n    mapping(bytes32 => address) public fundData;\r\n    address[] public override allFunds;\r\n\r\n    /**\r\n     * @notice retrieves the address of the IndexFund, if it exists.\r\n     * @param _tokenArray the array of addresses that make the fund.\r\n     */\r\n    function getFund(address[] memory _tokenArray) external override view returns (address fund){\r\n        _tokenArray = TacoLibrary.sortTokens(_tokenArray);\r\n        return fundData[keccak256(abi.encodePacked(_tokenArray))];\r\n    }\r\n\r\n    /// @notice returns the total amount of different Index Funds.\r\n    function allFundsLength() external override view returns (uint) {\r\n        return allFunds.length;\r\n    }\r\n\r\n    /// @notice gets the codeHash of the IndexFund base contract.\r\n    function fundCodeHash() external pure returns (bytes32) {\r\n        return keccak256(type(IndexFundV1).creationCode);\r\n    }\r\n\r\n    /**\r\n     * @notice Creates an Index Fund.\r\n     * @param _tokenArray The token addresses that make the fund.\r\n     * @param _proportionsArray The amounts of the respective tokens that represent a (1) unit of the Fund Token\r\n     */\r\n    function createFund(\r\n        address[] memory _tokenArray,\r\n        uint256[] memory _proportionsArray)\r\n        external override onlyOwner returns (address fund) {\r\n        // sort tokens. This is the same function as then library, but using two arrays instead of one.\r\n        for (uint i = 1; i < _tokenArray.length; i++) {\r\n            address key = _tokenArray[i];\r\n            uint256 key2 = _proportionsArray[i];\r\n            uint j = i - 1;\r\n            while ((int(j) >= 0) && (_tokenArray[j] > key)) {\r\n                _tokenArray[j + 1] = _tokenArray[j];\r\n                _proportionsArray[j + 1] = _proportionsArray[j];\r\n                j--;\r\n            }\r\n            _tokenArray[j + 1] = key;\r\n            _proportionsArray[j + 1] = key2;\r\n        }\r\n\r\n        // hashed array is also salt\r\n        bytes32 hashedArray = keccak256(abi.encodePacked(_tokenArray));\r\n        require(fundData[hashedArray] == address(0), 'TacoFinance: FUND_EXISTS');\r\n        bytes memory bytecode = type(IndexFundV1).creationCode;\r\n        assembly {\r\n        fund := create2(0, add(bytecode, 32), mload(bytecode), hashedArray)\r\n        }\r\n        IndexFundV1(fund).initialize(_tokenArray, _proportionsArray);\r\n        fundData[hashedArray] = fund;\r\n        allFunds.push(fund);\r\n        emit FundCreated(_tokenArray, fund, allFunds.length);\r\n    }\r\n\r\n    /**\r\n      * @notice Sets the address that receives the dev Fees if activated.\r\n      * @dev IndexFundV1 does not have any dev fees.\r\n      * @param _feeTo The address that receives the fees.\r\n      */\r\n    function setFeeTo(address _feeTo) external override onlyOwner {\r\n        feeTo = _feeTo;\r\n    }\r\n\r\n\r\n    /**\r\n      * @notice Changes the vaults on which the fund's tokens are invested. Can be set to the 0 address to disable investing.\r\n      * @param _tokenArray The token addresses that make the fund.\r\n      * @param _newVaults The addresses of the new vaults.\r\n      */\r\n    function setVaults(address[] memory _tokenArray, address[] memory _newVaults) external override onlyOwner {\r\n        _tokenArray = TacoLibrary.sortTokens(_tokenArray);\r\n        address fundAddr = fundData[keccak256(abi.encodePacked(_tokenArray))];\r\n        require(fundAddr != address(0), 'TacoFinance: NO_FUND');\r\n        IndexFundV1 fund = IndexFundV1(fundAddr);\r\n        fund.setVaults(_newVaults);\r\n        emit FundVaultsChanged(fundAddr, _newVaults);\r\n    }\r\n\r\n    /**\r\n      * @notice Modify amount that is invested from an IndexFund\r\n      * @dev The denominator is 1000.\r\n      * @param _tokenArray The token addresses that make the fund.\r\n      * @param _numerator The new numerator.\r\n      */\r\n    function setInvestingNumerator(address[] memory _tokenArray, uint256 _numerator) external override onlyOwner {\r\n        _tokenArray = TacoLibrary.sortTokens(_tokenArray);\r\n        address fundAddr = fundData[keccak256(abi.encodePacked(_tokenArray))];\r\n        require(fundAddr != address(0), 'TacoFinance: NO_FUND');\r\n        IndexFundV1 fund = IndexFundV1(fundAddr);\r\n        fund.setInvestingNumerator(_numerator);\r\n    }\r\n\r\n    /**\r\n      * @notice @notice Set if an IndexFund has the 0.05 exit Fee.\r\n      * @dev The fee is kept in the Fund for the other users, is not a dev fee.\r\n      * @param _tokenArray The token addresses that make the fund.\r\n      * @param _withFee If the fee is active or not.\r\n      */\r\n    function switchExitFee(address[] memory _tokenArray, bool _withFee) external override onlyOwner {\r\n        _tokenArray = TacoLibrary.sortTokens(_tokenArray);\r\n        address fundAddr = fundData[keccak256(abi.encodePacked(_tokenArray))];\r\n        require(fundAddr != address(0), 'TacoFinance: NO_FUND');\r\n        IndexFundV1 fund = IndexFundV1(fundAddr);\r\n        fund.setExitFee(_withFee);\r\n        emit FundExitFee(fundAddr, _withFee);\r\n    }\r\n\r\n}\r\n",
  "sourcePath": "D:/Documents/farming/contracts/TacoController.sol",
  "compiler": {
    "name": "solc",
    "version": "0.7.0+commit.9e61f92b.Emscripten.clang"
  },
  "schemaVersion": "3.3.3",
  "updatedAt": "2021-06-26T22:40:25.745Z",
  "devdoc": {
    "author": "Kindynos",
    "kind": "dev",
    "methods": {
      "claimOwnership()": {
        "details": "If the address has been proposed, it can accept the ownership, Can only be called by the current proposed owner."
      },
      "createFund(address[],uint256[])": {
        "params": {
          "_proportionsArray": "The amounts of the respective tokens that represent a (1) unit of the Fund Token",
          "_tokenArray": "The token addresses that make the fund."
        }
      },
      "getFund(address[])": {
        "params": {
          "_tokenArray": "the array of addresses that make the fund."
        }
      },
      "owner()": {
        "details": "Returns the address of the current owner."
      },
      "proposeOwner(address)": {
        "details": "Proposes a new owner of the contract to a new account (`newOwner`). Can only be called by the current owner."
      },
      "renounceOwnership()": {
        "details": "Leaves the contract without owner. It will not be possible to call `onlyOwner` functions anymore. Can only be called by the current owner. NOTE: Renouncing ownership will leave the contract without an owner, thereby removing any functionality that is only available to the owner."
      },
      "setFeeTo(address)": {
        "details": "IndexFundV1 does not have any dev fees.",
        "params": {
          "_feeTo": "The address that receives the fees."
        }
      },
      "setInvestingNumerator(address[],uint256)": {
        "details": "The denominator is 1000.",
        "params": {
          "_numerator": "The new numerator.",
          "_tokenArray": "The token addresses that make the fund."
        }
      },
      "setVaults(address[],address[])": {
        "params": {
          "_newVaults": "The addresses of the new vaults.",
          "_tokenArray": "The token addresses that make the fund."
        }
      },
      "switchExitFee(address[],bool)": {
        "details": "The fee is kept in the Fund for the other users, is not a dev fee.",
        "params": {
          "_tokenArray": "The token addresses that make the fund.",
          "_withFee": "If the fee is active or not."
        }
      }
    },
    "title": "The contract that deploys and controls IndexFunds.",
    "version": 1
  },
  "userdoc": {
    "kind": "user",
    "methods": {
      "allFundsLength()": {
        "notice": "returns the total amount of different Index Funds."
      },
      "createFund(address[],uint256[])": {
        "notice": "Creates an Index Fund."
      },
      "fundCodeHash()": {
        "notice": "gets the codeHash of the IndexFund base contract."
      },
      "getFund(address[])": {
        "notice": "retrieves the address of the IndexFund, if it exists."
      },
      "setFeeTo(address)": {
        "notice": "Sets the address that receives the dev Fees if activated."
      },
      "setInvestingNumerator(address[],uint256)": {
        "notice": "Modify amount that is invested from an IndexFund"
      },
      "setVaults(address[],address[])": {
        "notice": "Changes the vaults on which the fund's tokens are invested. Can be set to the 0 address to disable investing."
      },
      "switchExitFee(address[],bool)": {
        "notice": "@notice Set if an IndexFund has the 0.05 exit Fee."
      }
    },
    "version": 1
  }
}