{
  "contractName": "TacoHelper",
  "abi": [
    {
      "inputs": [
        {
          "internalType": "contract IUniswapV2Router01",
          "name": "_uniRouter",
          "type": "address"
        },
        {
          "internalType": "address",
          "name": "_tacoFactory",
          "type": "address"
        }
      ],
      "stateMutability": "nonpayable",
      "type": "constructor"
    },
    {
      "inputs": [],
      "name": "tacoFactory",
      "outputs": [
        {
          "internalType": "address",
          "name": "",
          "type": "address"
        }
      ],
      "stateMutability": "view",
      "type": "function"
    },
    {
      "inputs": [],
      "name": "uniFactory",
      "outputs": [
        {
          "internalType": "contract IUniswapV2Factory",
          "name": "",
          "type": "address"
        }
      ],
      "stateMutability": "view",
      "type": "function"
    },
    {
      "inputs": [],
      "name": "uniRouter",
      "outputs": [
        {
          "internalType": "contract IUniswapV2Router01",
          "name": "",
          "type": "address"
        }
      ],
      "stateMutability": "view",
      "type": "function"
    },
    {
      "inputs": [],
      "name": "weth",
      "outputs": [
        {
          "internalType": "address",
          "name": "",
          "type": "address"
        }
      ],
      "stateMutability": "view",
      "type": "function"
    },
    {
      "inputs": [
        {
          "internalType": "contract IWrappedFund",
          "name": "fund",
          "type": "address"
        },
        {
          "internalType": "uint256",
          "name": "amountETH",
          "type": "uint256"
        }
      ],
      "name": "getAmountsInForETH",
      "outputs": [
        {
          "internalType": "uint256[]",
          "name": "",
          "type": "uint256[]"
        },
        {
          "internalType": "uint256",
          "name": "",
          "type": "uint256"
        }
      ],
      "stateMutability": "view",
      "type": "function"
    },
    {
      "inputs": [
        {
          "internalType": "address[]",
          "name": "_tokenArray",
          "type": "address[]"
        },
        {
          "internalType": "uint256[]",
          "name": "amounts",
          "type": "uint256[]"
        },
        {
          "internalType": "uint256",
          "name": "fundAmount",
          "type": "uint256"
        },
        {
          "internalType": "address",
          "name": "to",
          "type": "address"
        },
        {
          "internalType": "uint256",
          "name": "deadline",
          "type": "uint256"
        }
      ],
      "name": "buyFundETH",
      "outputs": [],
      "stateMutability": "payable",
      "type": "function"
    },
    {
      "inputs": [
        {
          "internalType": "address[]",
          "name": "_tokenArray",
          "type": "address[]"
        },
        {
          "internalType": "uint256",
          "name": "fundMin",
          "type": "uint256"
        },
        {
          "internalType": "uint256[]",
          "name": "amounts",
          "type": "uint256[]"
        },
        {
          "internalType": "address",
          "name": "to",
          "type": "address"
        },
        {
          "internalType": "uint256",
          "name": "deadline",
          "type": "uint256"
        }
      ],
      "name": "buyFund",
      "outputs": [],
      "stateMutability": "payable",
      "type": "function"
    },
    {
      "inputs": [
        {
          "internalType": "address[]",
          "name": "_tokenArray",
          "type": "address[]"
        },
        {
          "internalType": "uint256",
          "name": "amountFund",
          "type": "uint256"
        },
        {
          "internalType": "uint256[]",
          "name": "amountsMin",
          "type": "uint256[]"
        },
        {
          "internalType": "address",
          "name": "to",
          "type": "address"
        },
        {
          "internalType": "uint256",
          "name": "deadline",
          "type": "uint256"
        }
      ],
      "name": "sellFund",
      "outputs": [],
      "stateMutability": "payable",
      "type": "function"
    },
    {
      "inputs": [
        {
          "internalType": "address[]",
          "name": "_tokenArray",
          "type": "address[]"
        }
      ],
      "name": "fundFor",
      "outputs": [
        {
          "internalType": "address",
          "name": "fund",
          "type": "address"
        }
      ],
      "stateMutability": "view",
      "type": "function"
    },
    {
      "inputs": [
        {
          "internalType": "address[]",
          "name": "_tokenArray",
          "type": "address[]"
        },
        {
          "internalType": "uint256[]",
          "name": "_amountsIn",
          "type": "uint256[]"
        }
      ],
      "name": "getAmountOut",
      "outputs": [
        {
          "internalType": "uint256",
          "name": "amountOut",
          "type": "uint256"
        }
      ],
      "stateMutability": "view",
      "type": "function"
    },
    {
      "inputs": [
        {
          "internalType": "address[]",
          "name": "_tokenArray",
          "type": "address[]"
        },
        {
          "internalType": "uint256",
          "name": "amountOut",
          "type": "uint256"
        }
      ],
      "name": "getAmountIn",
      "outputs": [
        {
          "internalType": "uint256[]",
          "name": "amounts",
          "type": "uint256[]"
        }
      ],
      "stateMutability": "view",
      "type": "function"
    },
    {
      "inputs": [
        {
          "internalType": "address[]",
          "name": "_tokenArray",
          "type": "address[]"
        }
      ],
      "name": "sortTokens",
      "outputs": [
        {
          "internalType": "address[]",
          "name": "",
          "type": "address[]"
        }
      ],
      "stateMutability": "view",
      "type": "function"
    }
  ],
  "bytecode": "0x60806040523480156200001157600080fd5b5060405162002e3238038062002e32833981810160405260408110156200003757600080fd5b508051602091820151600180546001600160a01b0319166001600160a01b038416908117909155604080516315ab88c960e31b8152905193949293919263ad5c464892600480840193829003018186803b1580156200009557600080fd5b505afa158015620000aa573d6000803e3d6000fd5b505050506040513d6020811015620000c157600080fd5b5051600080546001600160a01b0319166001600160a01b039283161790556001546040805163c45a015560e01b81529051919092169163c45a0155916004808301926020929190829003018186803b1580156200011d57600080fd5b505afa15801562000132573d6000803e3d6000fd5b505050506040513d60208110156200014957600080fd5b5051600280546001600160a01b039283166001600160a01b0319918216179091556003805493909216921691909117905550612ca7806200018b6000396000f3fe6080604052600436106100a75760003560e01c8063733c4c3a11610064578063733c4c3a1461046b57806376771d4b146105a45780637ad7a22b146105b9578063a0e47bf6146106fb578063ab65e6ab14610710578063dad86483146107c0576100a7565b8063088642a3146100ac578063136deb1c146101e557806334c9eeaa146102e35780633a38d706146103ad5780633fc8cef3146104415780634c14f5f314610456575b600080fd5b6101e3600480360360a08110156100c257600080fd5b810190602081018135600160201b8111156100dc57600080fd5b8201836020820111156100ee57600080fd5b803590602001918460208302840111600160201b8311171561010f57600080fd5b9190808060200260200160405190810160405280939291908181526020018383602002808284376000920191909152509295949360208101935035915050600160201b81111561015e57600080fd5b82018360208201111561017057600080fd5b803590602001918460208302840111600160201b8311171561019157600080fd5b9190808060200260200160405190810160405280939291908181526020018383602002808284376000920191909152509295505082359350505060208101356001600160a01b031690604001356108f9565b005b3480156101f157600080fd5b506102936004803603602081101561020857600080fd5b810190602081018135600160201b81111561022257600080fd5b82018360208201111561023457600080fd5b803590602001918460208302840111600160201b8311171561025557600080fd5b919080806020026020016040519081016040528093929190818152602001838360200280828437600092019190915250929550610fa1945050505050565b60408051602080825283518183015283519192839290830191858101910280838360005b838110156102cf5781810151838201526020016102b7565b505050509050019250505060405180910390f35b3480156102ef57600080fd5b506103916004803603602081101561030657600080fd5b810190602081018135600160201b81111561032057600080fd5b82018360208201111561033257600080fd5b803590602001918460208302840111600160201b8311171561035357600080fd5b919080806020026020016040519081016040528093929190818152602001838360200280828437600092019190915250929550610fb2945050505050565b604080516001600160a01b039092168252519081900360200190f35b3480156103b957600080fd5b506103e6600480360360408110156103d057600080fd5b506001600160a01b038135169060200135610fcb565b6040518080602001838152602001828103825284818151815260200191508051906020019060200280838360005b8381101561042c578181015183820152602001610414565b50505050905001935050505060405180910390f35b34801561044d57600080fd5b5061039161196f565b34801561046257600080fd5b5061039161197e565b6101e3600480360360a081101561048157600080fd5b810190602081018135600160201b81111561049b57600080fd5b8201836020820111156104ad57600080fd5b803590602001918460208302840111600160201b831117156104ce57600080fd5b91908080602002602001604051908101604052809392919081815260200183836020028082843760009201919091525092958435959094909350604081019250602001359050600160201b81111561052557600080fd5b82018360208201111561053757600080fd5b803590602001918460208302840111600160201b8311171561055857600080fd5b919080806020026020016040519081016040528093929190818152602001838360200280828437600092019190915250929550506001600160a01b03833516935050506020013561198d565b3480156105b057600080fd5b50610391611ca5565b3480156105c557600080fd5b506106e9600480360360408110156105dc57600080fd5b810190602081018135600160201b8111156105f657600080fd5b82018360208201111561060857600080fd5b803590602001918460208302840111600160201b8311171561062957600080fd5b9190808060200260200160405190810160405280939291908181526020018383602002808284376000920191909152509295949360208101935035915050600160201b81111561067857600080fd5b82018360208201111561068a57600080fd5b803590602001918460208302840111600160201b831117156106ab57600080fd5b919080806020026020016040519081016040528093929190818152602001838360200280828437600092019190915250929550611cb4945050505050565b60408051918252519081900360200190f35b34801561070757600080fd5b50610391611cd5565b34801561071c57600080fd5b506102936004803603604081101561073357600080fd5b810190602081018135600160201b81111561074d57600080fd5b82018360208201111561075f57600080fd5b803590602001918460208302840111600160201b8311171561078057600080fd5b9190808060200260200160405190810160405280939291908181526020018383602002808284376000920191909152509295505091359250611ce4915050565b6101e3600480360360a08110156107d657600080fd5b810190602081018135600160201b8111156107f057600080fd5b82018360208201111561080257600080fd5b803590602001918460208302840111600160201b8311171561082357600080fd5b91908080602002602001604051908101604052809392919081815260200183836020028082843760009201919091525092958435959094909350604081019250602001359050600160201b81111561087a57600080fd5b82018360208201111561088c57600080fd5b803590602001918460208302840111600160201b831117156108ad57600080fd5b919080806020026020016040519081016040528093929190818152602001838360200280828437600092019190915250929550506001600160a01b038335169350505060200135611cfe565b804281101561093f576040805162461bcd60e51b815260206004820152600d60248201526c151858dbce8811561412549151609a1b604482015290519081900360640190fd5b600061094a87610fb2565b60408051600280825260608083018452939450600093926020830190803683370190505090506060836001600160a01b0316639d63848a6040518163ffffffff1660e01b815260040160006040518083038186803b1580156109ab57600080fd5b505afa1580156109bf573d6000803e3d6000fd5b505050506040513d6000823e601f3d908101601f1916820160405260208110156109e857600080fd5b8101908080516040519392919084600160201b821115610a0757600080fd5b908301906020820185811115610a1c57600080fd5b82518660208202830111600160201b82111715610a3857600080fd5b82525081516020918201928201910280838360005b83811015610a65578181015183820152602001610a4d565b50505050905001604052505050905060005b8151811015610f505760005482516001600160a01b0390911690839083908110610a9d57fe5b60200260200101516001600160a01b03161415610b94576000548a516001600160a01b039091169063d0e30db0908c9084908110610ad757fe5b60200260200101516040518263ffffffff1660e01b81526004016000604051808303818588803b158015610b0a57600080fd5b505af1158015610b1e573d6000803e3d6000fd5b5050505050610b67338b8381518110610b3357fe5b6020026020010151848481518110610b4757fe5b60200260200101516001600160a01b0316611f339092919063ffffffff16565b610b8d8a8281518110610b7657fe5b602002602001015185611f8a90919063ffffffff16565b9350610f48565b6000805484516001600160a01b03909116918591610bae57fe5b60200260200101906001600160a01b031690816001600160a01b031681525050818181518110610bda57fe5b602002602001015183600181518110610bef57fe5b6001600160a01b0392831660209182029290920101526001548b516060929190911690631f00ca74908d9085908110610c2457fe5b6020026020010151866040518363ffffffff1660e01b81526004018083815260200180602001828103825283818151815260200191508051906020019060200280838360005b83811015610c82578181015183820152602001610c6a565b50505050905001935050505060006040518083038186803b158015610ca657600080fd5b505afa158015610cba573d6000803e3d6000fd5b505050506040513d6000823e601f3d908101601f191682016040526020811015610ce357600080fd5b8101908080516040519392919084600160201b821115610d0257600080fd5b908301906020820185811115610d1757600080fd5b82518660208202830111600160201b82111715610d3357600080fd5b82525081516020918201928201910280838360005b83811015610d60578181015183820152602001610d48565b5050505090500160405250505090506060600160009054906101000a90046001600160a01b03166001600160a01b031663fb3bdb4183600081518110610da257fe5b60200260200101518e8681518110610db657fe5b602002602001015188338e6040518663ffffffff1660e01b81526004018085815260200180602001846001600160a01b03168152602001838152602001828103825285818151815260200191508051906020019060200280838360005b83811015610e2b578181015183820152602001610e13565b50505050905001955050505050506000604051808303818588803b158015610e5257600080fd5b505af1158015610e66573d6000803e3d6000fd5b50505050506040513d6000823e601f3d908101601f191682016040526020811015610e9057600080fd5b8101908080516040519392919084600160201b821115610eaf57600080fd5b908301906020820185811115610ec457600080fd5b82518660208202830111600160201b82111715610ee057600080fd5b82525081516020918201928201910280838360005b83811015610f0d578181015183820152602001610ef5565b505050509050016040525050509050610f4381600081518110610f2c57fe5b602002602001015187611f8a90919063ffffffff16565b955050505b600101610a77565b506000610f60858a8c338c611fe4565b905088811015610f6f57600080fd5b6000610f7b34866121bf565b1115610f9457610f9433610f8f34876121bf565b61221c565b5050505050505050505050565b6060610fac8261230f565b92915050565b600354600090610fac906001600160a01b0316836123f5565b606060006060846001600160a01b031663e6682caf6040518163ffffffff1660e01b815260040160006040518083038186803b15801561100a57600080fd5b505afa15801561101e573d6000803e3d6000fd5b505050506040513d6000823e601f3d908101601f19168201604052602081101561104757600080fd5b8101908080516040519392919084600160201b82111561106657600080fd5b90830190602082018581111561107b57600080fd5b82518660208202830111600160201b8211171561109757600080fd5b82525081516020918201928201910280838360005b838110156110c45781810151838201526020016110ac565b5050505090500160405250505090506060856001600160a01b0316639d63848a6040518163ffffffff1660e01b815260040160006040518083038186803b15801561110e57600080fd5b505afa158015611122573d6000803e3d6000fd5b505050506040513d6000823e601f3d908101601f19168201604052602081101561114b57600080fd5b8101908080516040519392919084600160201b82111561116a57600080fd5b90830190602082018581111561117f57600080fd5b82518660208202830111600160201b8211171561119b57600080fd5b82525081516020918201928201910280838360005b838110156111c85781810151838201526020016111b0565b5050505090500160405250505090506060600267ffffffffffffffff811180156111f157600080fd5b5060405190808252806020026020018201604052801561121b578160200160208202803683370190505b5090506060825167ffffffffffffffff8111801561123857600080fd5b50604051908082528060200260200182016040528015611262578160200160208202803683370190505b50905060008060009054906101000a90046001600160a01b03168360018151811061128957fe5b60200260200101906001600160a01b031690816001600160a01b03168152505060005b84518110156115115760005485516001600160a01b03909116908690839081106112d257fe5b60200260200101516001600160a01b0316141561131a578581815181106112f557fe5b602002602001015183828151811061130957fe5b6020026020010181815250506114e1565b84818151811061132657fe5b60200260200101518460008151811061133b57fe5b6001600160a01b039283166020918202929092010152600154875191169063d06ca61f9088908490811061136b57fe5b6020026020010151866040518363ffffffff1660e01b81526004018083815260200180602001828103825283818151815260200191508051906020019060200280838360005b838110156113c95781810151838201526020016113b1565b50505050905001935050505060006040518083038186803b1580156113ed57600080fd5b505afa158015611401573d6000803e3d6000fd5b505050506040513d6000823e601f3d908101601f19168201604052602081101561142a57600080fd5b8101908080516040519392919084600160201b82111561144957600080fd5b90830190602082018581111561145e57600080fd5b82518660208202830111600160201b8211171561147a57600080fd5b82525081516020918201928201910280838360005b838110156114a757818101518382015260200161148f565b505050509050016040525050506001815181106114c057fe5b60200260200101518382815181106114d457fe5b6020026020010181815250505b6115078382815181106114f057fe5b602002602001015183611f8a90919063ffffffff16565b91506001016112ac565b5060005b845181101561179a5760006115508361154a86858151811061153357fe5b60200260200101518d6124d090919063ffffffff16565b90612529565b60005487519192506001600160a01b03169087908490811061156e57fe5b60200260200101516001600160a01b031614156115a4578087838151811061159257fe5b60200260200101818152505050611792565b6000805486516001600160a01b039091169187916115be57fe5b60200260200101906001600160a01b031690816001600160a01b0316815250508582815181106115ea57fe5b6020026020010151856001815181106115ff57fe5b6001600160a01b039283166020918202929092018101919091526001546040805163d06ca61f60e01b815260048101868152602482019283528a5160448301528a51939095169463d06ca61f9487948c94929360640191858101910280838360005b83811015611679578181015183820152602001611661565b50505050905001935050505060006040518083038186803b15801561169d57600080fd5b505afa1580156116b1573d6000803e3d6000fd5b505050506040513d6000823e601f3d908101601f1916820160405260208110156116da57600080fd5b8101908080516040519392919084600160201b8211156116f957600080fd5b90830190602082018581111561170e57600080fd5b82518660208202830111600160201b8211171561172a57600080fd5b82525081516020918201928201910280838360005b8381101561175757818101518382015260200161173f565b5050505090500160405250505060018151811061177057fe5b602002602001015187838151811061178457fe5b602002602001018181525050505b600101611515565b506000896001600160a01b031663330b1de8876040518263ffffffff1660e01b81526004018080602001828103825283818151815260200191508051906020019060200280838360005b838110156117fc5781810151838201526020016117e4565b505050509050019250505060206040518083038186803b15801561181f57600080fd5b505afa158015611833573d6000803e3d6000fd5b505050506040513d602081101561184957600080fd5b50516040805163101a16e560e21b81526004810183905290519192506001600160a01b038c16916340685b9491602480820192600092909190829003018186803b15801561189657600080fd5b505afa1580156118aa573d6000803e3d6000fd5b505050506040513d6000823e601f3d908101601f1916820160405260208110156118d357600080fd5b8101908080516040519392919084600160201b8211156118f257600080fd5b90830190602082018581111561190757600080fd5b82518660208202830111600160201b8211171561192357600080fd5b82525081516020918201928201910280838360005b83811015611950578181015183820152602001611938565b5050505090500160405250505081975097505050505050509250929050565b6000546001600160a01b031681565b6003546001600160a01b031681565b80428110156119d3576040805162461bcd60e51b815260206004820152600d60248201526c151858dbce8811561412549151609a1b604482015290519081900360640190fd5b60006119de87610fb2565b90506119ec81338389612590565b6060816001600160a01b03166375f26e63866040518263ffffffff1660e01b815260040180826001600160a01b03168152602001915050600060405180830381600087803b158015611a3d57600080fd5b505af1158015611a51573d6000803e3d6000fd5b505050506040513d6000823e601f3d908101601f191682016040526020811015611a7a57600080fd5b8101908080516040519392919084600160201b821115611a9957600080fd5b908301906020820185811115611aae57600080fd5b82518660208202830111600160201b82111715611aca57600080fd5b82525081516020918201928201910280838360005b83811015611af7578181015183820152602001611adf565b5050505090500160405250505090506060826001600160a01b0316639d63848a6040518163ffffffff1660e01b815260040160006040518083038186803b158015611b4157600080fd5b505afa158015611b55573d6000803e3d6000fd5b505050506040513d6000823e601f3d908101601f191682016040526020811015611b7e57600080fd5b8101908080516040519392919084600160201b821115611b9d57600080fd5b908301906020820185811115611bb257600080fd5b82518660208202830111600160201b82111715611bce57600080fd5b82525081516020918201928201910280838360005b83811015611bfb578181015183820152602001611be3565b50505050905001604052505050905060005b8151811015611c9957878181518110611c2257fe5b6020026020010151838281518110611c3657fe5b60200260200101511015611c91576040805162461bcd60e51b815260206004820152601a60248201527f494e53554646494349454e54204f555450555420414d4f554e54000000000000604482015290519081900360640190fd5b600101611c0d565b50505050505050505050565b6002546001600160a01b031681565b600354600090611cce906001600160a01b031684846126ed565b9392505050565b6001546001600160a01b031681565b600354606090611cce906001600160a01b031684846127ae565b8042811015611d44576040805162461bcd60e51b815260206004820152600d60248201526c151858dbce8811561412549151609a1b604482015290519081900360640190fd5b6000611d4f87610fb2565b60405163066163bd60e31b81526020600482018181528851602484015288519394506000936001600160a01b0386169363330b1de8938b939283926044019180860191028083838b5b83811015611db0578181015183820152602001611d98565b505050509050019250505060206040518083038186803b158015611dd357600080fd5b505afa158015611de7573d6000803e3d6000fd5b505050506040513d6020811015611dfd57600080fd5b50516040805163101a16e560e21b81526004810183905290519192506060916001600160a01b038516916340685b94916024808301926000929190829003018186803b158015611e4c57600080fd5b505afa158015611e60573d6000803e3d6000fd5b505050506040513d6000823e601f3d908101601f191682016040526020811015611e8957600080fd5b8101908080516040519392919084600160201b821115611ea857600080fd5b908301906020820185811115611ebd57600080fd5b82518660208202830111600160201b82111715611ed957600080fd5b82525081516020918201928201910280838360005b83811015611f06578181015183820152602001611eee565b5050505090500160405250505090506000611f24848484338b611fe4565b905088811015611c9957600080fd5b604080516001600160a01b038416602482015260448082018490528251808303909101815260649091019091526020810180516001600160e01b031663a9059cbb60e01b179052611f859084906128cd565b505050565b600082820183811015611cce576040805162461bcd60e51b815260206004820152601b60248201527f536166654d6174683a206164646974696f6e206f766572666c6f770000000000604482015290519081900360640190fd5b60006060866001600160a01b0316639d63848a6040518163ffffffff1660e01b815260040160006040518083038186803b15801561202157600080fd5b505afa158015612035573d6000803e3d6000fd5b505050506040513d6000823e601f3d908101601f19168201604052602081101561205e57600080fd5b8101908080516040519392919084600160201b82111561207d57600080fd5b90830190602082018581111561209257600080fd5b82518660208202830111600160201b821117156120ae57600080fd5b82525081516020918201928201910280838360005b838110156120db5781810151838201526020016120c3565b50505050905001604052505050905060005b81518110156121305761212882828151811061210557fe5b6020026020010151868a89858151811061211b57fe5b6020026020010151612590565b6001016120ed565b50866001600160a01b03166313bac82087856040518363ffffffff1660e01b815260040180838152602001826001600160a01b0316815260200192505050602060405180830381600087803b15801561218857600080fd5b505af115801561219c573d6000803e3d6000fd5b505050506040513d60208110156121b257600080fd5b5051979650505050505050565b600082821115612216576040805162461bcd60e51b815260206004820152601e60248201527f536166654d6174683a207375627472616374696f6e206f766572666c6f770000604482015290519081900360640190fd5b50900390565b604080516000808252602082019092526001600160a01b0384169083906040518082805190602001908083835b602083106122685780518252601f199092019160209182019101612249565b6001836020036101000a03801982511681845116808217855250505050505090500191505060006040518083038185875af1925050503d80600081146122ca576040519150601f19603f3d011682016040523d82523d6000602084013e6122cf565b606091505b5050905080611f855760405162461bcd60e51b8152600401808060200182810382526034815260200180612bcd6034913960400191505060405180910390fd5b606060015b82518110156123ee57600083828151811061232b57fe5b6020026020010151905060006001830390505b600081121580156123735750816001600160a01b031685828151811061236057fe5b60200260200101516001600160a01b0316115b156123bc5784818151811061238457fe5b602002602001015185826001018151811061239b57fe5b6001600160a01b03909216602092830291909101909101526000190161233e565b818582600101815181106123cc57fe5b6001600160a01b03909216602092830291909101909101525050600101612314565b5090919050565b60006124008261230f565b9150828260405160200180828051906020019060200280838360005b8381101561243457818101518382015260200161241c565b505050509050019150506040516020818303038152906040528051906020012060405160200180806001600160f81b0319815250600101836001600160a01b031660601b8152601401828152602001807f9977c32f0dd0427d747ca1a0c1ab09d8bb80d9fd9413789c27ffacaa91aab8b6815250602001925050506040516020818303038152906040528051906020012060001c905092915050565b6000826124df57506000610fac565b828202828482816124ec57fe5b0414611cce5760405162461bcd60e51b8152600401808060200182810382526021815260200180612c276021913960400191505060405180910390fd5b600080821161257f576040805162461bcd60e51b815260206004820152601a60248201527f536166654d6174683a206469766973696f6e206279207a65726f000000000000604482015290519081900360640190fd5b81838161258857fe5b049392505050565b604080516001600160a01b0385811660248301528481166044830152606480830185905283518084039091018152608490920183526020820180516001600160e01b03166323b872dd60e01b17815292518251600094606094938a169392918291908083835b602083106126155780518252601f1990920191602091820191016125f6565b6001836020036101000a0380198251168184511680821785525050505050509050019150506000604051808303816000865af19150503d8060008114612677576040519150601f19603f3d011682016040523d82523d6000602084013e61267c565b606091505b50915091508180156126aa5750805115806126aa57508080602001905160208110156126a757600080fd5b50515b6126e55760405162461bcd60e51b8152600401808060200182810382526031815260200180612b9c6031913960400191505060405180910390fd5b505050505050565b60006126f984846123f5565b6001600160a01b031663330b1de8836040518263ffffffff1660e01b81526004018080602001828103825283818151815260200191508051906020019060200280838360005b8381101561275757818101518382015260200161273f565b505050509050019250505060206040518083038186803b15801561277a57600080fd5b505afa15801561278e573d6000803e3d6000fd5b505050506040513d60208110156127a457600080fd5b5051949350505050565b60606127ba84846123f5565b6001600160a01b03166340685b94836040518263ffffffff1660e01b81526004018082815260200191505060006040518083038186803b1580156127fd57600080fd5b505afa158015612811573d6000803e3d6000fd5b505050506040513d6000823e601f3d908101601f19168201604052602081101561283a57600080fd5b8101908080516040519392919084600160201b82111561285957600080fd5b90830190602082018581111561286e57600080fd5b82518660208202830111600160201b8211171561288a57600080fd5b82525081516020918201928201910280838360005b838110156128b757818101518382015260200161289f565b5050505090500160405250505090509392505050565b6060612922826040518060400160405280602081526020017f5361666545524332303a206c6f772d6c6576656c2063616c6c206661696c6564815250856001600160a01b031661297e9092919063ffffffff16565b805190915015611f855780806020019051602081101561294157600080fd5b5051611f855760405162461bcd60e51b815260040180806020018281038252602a815260200180612c48602a913960400191505060405180910390fd5b606061298d8484600085612995565b949350505050565b6060824710156129d65760405162461bcd60e51b8152600401808060200182810382526026815260200180612c016026913960400191505060405180910390fd5b6129df85612af1565b612a30576040805162461bcd60e51b815260206004820152601d60248201527f416464726573733a2063616c6c20746f206e6f6e2d636f6e7472616374000000604482015290519081900360640190fd5b60006060866001600160a01b031685876040518082805190602001908083835b60208310612a6f5780518252601f199092019160209182019101612a50565b6001836020036101000a03801982511681845116808217855250505050505090500191505060006040518083038185875af1925050503d8060008114612ad1576040519150601f19603f3d011682016040523d82523d6000602084013e612ad6565b606091505b5091509150612ae6828286612af7565b979650505050505050565b3b151590565b60608315612b06575081611cce565b825115612b165782518084602001fd5b8160405162461bcd60e51b81526004018080602001828103825283818151815260200191508051906020019080838360005b83811015612b60578181015183820152602001612b48565b50505050905090810190601f168015612b8d5780820380516001836020036101000a031916815260200191505b509250505060405180910390fdfe5472616e7366657248656c7065723a3a7472616e7366657246726f6d3a207472616e7366657246726f6d206661696c65645472616e7366657248656c7065723a3a736166655472616e736665724554483a20455448207472616e73666572206661696c6564416464726573733a20696e73756666696369656e742062616c616e636520666f722063616c6c536166654d6174683a206d756c7469706c69636174696f6e206f766572666c6f775361666545524332303a204552433230206f7065726174696f6e20646964206e6f742073756363656564a26469706673582212205a84baea9ad21e3726d63c55aa029386d75d2653f9e4a5e3df53ec976eeed64764736f6c63430007000033",
  "immutableReferences": {},
  "source": "// SPDX-License-Identifier: MIT\r\n\r\npragma solidity ^0.7.0;\r\n\r\nimport '@openzeppelin/contracts/math/Math.sol';\r\nimport '@openzeppelin/contracts/token/ERC20/IERC20.sol';\r\nimport '@openzeppelin/contracts/token/ERC20/SafeERC20.sol';\r\nimport '@openzeppelin/contracts/token/ERC20/ERC20.sol';\r\nimport '@openzeppelin/contracts/access/Ownable.sol';\r\nimport '@openzeppelin/contracts/math/SafeMath.sol';\r\nimport './libraries/TransferHelper.sol';\r\nimport './libraries/TacoLibrary.sol';\r\nimport './interfaces/IUniswapV2Router01.sol';\r\nimport './interfaces/IUniswapV2Pair.sol';\r\nimport './interfaces/IUniswapV2Factory.sol';\r\nimport './interfaces/IPool.sol';\r\nimport './interfaces/IWETH.sol';\r\nimport './interfaces/IIndexFund.sol';\r\n\r\n\r\n/// @author Kindynos\r\n/// @title Helper Functions to buy funds.\r\ncontract TacoHelper {\r\n    using SafeMath for uint256;\r\n    using SafeERC20 for IERC20;\r\n\r\n    // WBNB || WETH address\r\n    address public weth;\r\n\r\n    // The DEX router and factory. From router you can get weth(wbnb) address and factory address\r\n    IUniswapV2Router01 public uniRouter;\r\n    IUniswapV2Factory public uniFactory;\r\n\r\n    // The Factory used to get the fund addresses\r\n    address public tacoFactory;\r\n\r\n    modifier ensure(uint deadline) {\r\n        require(deadline >= block.timestamp, 'Taco: EXPIRED');\r\n        _;\r\n    }\r\n\r\n    /**\r\n     * @notice Creates an Index Fund.\r\n     * @param _uniRouter The DEX router used to trade tokens.\r\n     * @param _tacoFactory The amounts of the respective tokens that represent a (1) unit of the Fund Token\r\n     */\r\n    constructor(\r\n        IUniswapV2Router01 _uniRouter,\r\n        address _tacoFactory\r\n    ) {\r\n        uniRouter = _uniRouter;\r\n        weth = _uniRouter.WETH();\r\n        uniFactory = IUniswapV2Factory(uniRouter.factory());\r\n        tacoFactory = _tacoFactory;\r\n    }\r\n\r\n    // Internal function that wraps tokens.\r\n    function _wrap(address fund, uint256 fundAmount, uint256[] memory amounts, address from, address to) internal returns(uint256) {\r\n        IERC20[] memory tokens = IWrappedFund(fund).tokens();\r\n        for(uint i = 0; i < tokens.length; i++){\r\n            TransferHelper.safeTransferFrom(address(tokens[i]), from, fund, amounts[i]);\r\n        }\r\n        return IWrappedFund(fund).wrap(fundAmount, to);\r\n    }\r\n\r\n    /**\r\n     * @notice Given ETH amount, estimate the min tokens amount[] to maximize fund acquisition.\r\n     * @dev This is an expensive function if called from a transaction.\r\n     * @param fund A valid fund address.\r\n     * @param amountETH The ETH amount that will be used in the transaction.\r\n     * @return The amounts for each token required.\r\n     * @return The exact ETH amount expected to be spent.\r\n     */\r\n    function getAmountsInForETH(IWrappedFund fund, uint256 amountETH) public view returns(uint256[] memory, uint256) {\r\n        // Get the unit prices for each token.\r\n        uint256[] memory unitAmounts = fund.lastUnitPrices();\r\n        IERC20[] memory tokens = fund.tokens();\r\n        address[] memory path = new address[](2);\r\n        uint256[] memory unitTokensWETH = new uint256[](tokens.length);\r\n        uint256 totalETHValue;\r\n        // Needed in an extra-loop because we need the WETH total value for an IFT.\r\n        path[1] = weth;\r\n        for(uint i = 0; i < tokens.length; i++){\r\n            // Get the tokens value in ETH\r\n            if(address(tokens[i]) == weth) {\r\n                unitTokensWETH[i] = unitAmounts[i];\r\n            }\r\n            else{\r\n                path[0] = address(tokens[i]);\r\n                unitTokensWETH[i] = uniRouter.getAmountsOut(unitAmounts[i], path)[1];\r\n            }\r\n            totalETHValue = totalETHValue.add(unitTokensWETH[i]);\r\n        }\r\n        for(uint i = 0; i < tokens.length; i++) {\r\n            uint256 proportionInWeth = amountETH.mul(unitTokensWETH[i]).div(totalETHValue);\r\n            if (address(tokens[i]) == weth) {\r\n                unitAmounts[i] = proportionInWeth;\r\n                continue;\r\n            }\r\n            // Estimate how much we can buy of each coin\r\n            path[0] = weth;\r\n            path[1] = address(tokens[i]);\r\n            unitAmounts[i] = uniRouter.getAmountsOut(proportionInWeth, path)[1];\r\n            // amounts[i] = amountsOut[1];\r\n        }\r\n        // How much Fund could we get from those amounts\r\n        uint256 fundAmount = IWrappedFund(fund).estimateAmountOut(unitAmounts);\r\n        // Amounts needed to buy that fund (not necessarily the same as previous amounts)\r\n        return (IWrappedFund(fund).estimateAmountIn(fundAmount), fundAmount);\r\n    }\r\n\r\n    /**\r\n     * @notice Buys the amount of funds specified using ETH/BNB. Should be used with amounts from getAmountsInForETH or there could be leftovers.\r\n     * @dev The ethAmount should include UPPER slippage.\r\n     * @param _tokenArray The addresses that make the fund.\r\n     * @param amounts Amounts of each token that the Helper will buy with the ETH/BNB. They should be in order.\r\n     * @param fundAmount The min amount of IFT we expect to receive.\r\n     * @param to The address that receives the funds.\r\n     * @param deadline The block timestamp where this transaction will expire.\r\n     */\r\n    function buyFundETH(\r\n        address[] memory _tokenArray,\r\n        uint256[] memory amounts,\r\n        uint256 fundAmount,\r\n        address to, uint deadline)\r\n    external payable ensure(deadline) {\r\n        IWrappedFund fund = IWrappedFund(fundFor(_tokenArray));\r\n        uint256 amountETH = 0;\r\n        address[] memory path = new address[](2);\r\n        IERC20[] memory tokens = fund.tokens();\r\n\r\n        // buy coins needed\r\n        for(uint i = 0; i < tokens.length; i++){\r\n            if (address(tokens[i]) == weth) {\r\n                IWETH(weth).deposit{value: amounts[i]}();\r\n                tokens[i].safeTransfer(msg.sender, amounts[i]);\r\n                amountETH = amountETH.add(amounts[i]);\r\n                continue;\r\n            }\r\n\r\n            path[0] = weth;\r\n            path[1] = address(tokens[i]);\r\n            uint256[] memory amountsIn = uniRouter.getAmountsIn(amounts[i], path);\r\n            uint256[] memory spent = uniRouter.swapETHForExactTokens{value:amountsIn[0]}(amounts[i], path, msg.sender, deadline);\r\n            amountETH = amountETH.add(spent[0]);\r\n        }\r\n        // wrap funds\r\n        uint256 funded = _wrap(address(fund), fundAmount, amounts, msg.sender, to);\r\n        require(funded >= fundAmount);\r\n        // refund dust eth, if any\r\n        if (msg.value.sub(amountETH) > 0) TransferHelper.safeTransferETH(msg.sender, msg.value.sub(amountETH));\r\n    }\r\n\r\n\r\n    /**\r\n     * @notice Buys most funds possible using amounts given.\r\n     * @dev The fundMin should include slippage.\r\n     * @param _tokenArray The addresses that make the fund.\r\n     * @param fundMin The min amount of IFT we expect to receive.\r\n     * @param amounts The amount of each token that we want to spend. Amounts should be in order.\r\n     * @param to The address that receives the funds.\r\n     * @param deadline The block timestamp where this transaction will expire.\r\n     */\r\n    function buyFund(address[] memory _tokenArray, uint256 fundMin, uint256[] memory amounts, address to, uint deadline) external payable ensure(deadline) {\r\n        IWrappedFund fund = IWrappedFund(fundFor(_tokenArray));\r\n        uint256 fundAmount = fund.estimateAmountOut(amounts);\r\n        uint256[] memory realAmounts = fund.estimateAmountIn(fundAmount);\r\n\r\n    uint256 funded =  _wrap(address(fund), fundAmount, realAmounts, msg.sender, to);\r\n        require(funded >= fundMin);\r\n    }\r\n\r\n\r\n\r\n    /**\r\n     * @notice Sells the fund token for underlying.\r\n     * @dev amountsMin should include slippage of at least 0.001\r\n     * @param _tokenArray The addresses that make the fund.\r\n     * @param amountFund Amount of fund token we wank to sell.\r\n     * @param amountsMin The min amount of tokens we expect to receive. Should be in order.\r\n     * @param to The address that receives the funds.\r\n     * @param deadline The block timestamp where this transaction will expire.\r\n     */\r\n    function sellFund(address[] memory _tokenArray, uint256 amountFund, uint256[] memory amountsMin, address to, uint deadline) external payable ensure(deadline) {\r\n        address fund = fundFor(_tokenArray);\r\n        TransferHelper.safeTransferFrom(fund, msg.sender, fund, amountFund);\r\n        uint256[] memory amounts = IWrappedFund(fund).unwrap(to);\r\n        IERC20[] memory tokens = IWrappedFund(fund).tokens();\r\n        for(uint i = 0; i < tokens.length; i++){\r\n            require(amounts[i] >= amountsMin[i] , \"INSUFFICIENT OUTPUT AMOUNT\");\r\n        }\r\n    }\r\n\r\n    // **** LIBRARY FUNCTIONS ****\r\n\r\n    /// Calculates the CREATE2 address for a fund without making any external calls\r\n    function fundFor(address[] memory _tokenArray)\r\n    public\r\n    view\r\n    virtual\r\n    returns (address fund)\r\n    {\r\n        return TacoLibrary.fundFor(tacoFactory, _tokenArray);\r\n    }\r\n\r\n    /// Estimate maximum possible amount of fund minted for amounts. Assumes correct order\r\n    function getAmountOut(address[] memory _tokenArray, uint256[] memory _amountsIn) public view returns(uint256 amountOut){\r\n        return TacoLibrary.getAmountOut(tacoFactory, _tokenArray, _amountsIn);\r\n    }\r\n\r\n    /// Estimate minimum amounts needed to mint exact fund amount.\r\n    function getAmountIn(address[] memory _tokenArray, uint256 amountOut) public view returns(uint256[] memory amounts) {\r\n        return TacoLibrary.getAmountIn(tacoFactory, _tokenArray, amountOut);\r\n    }\r\n\r\n    /// Sort token arrays to get the order used in the Controller and Fund.\r\n    function sortTokens(address[] memory _tokenArray) public view returns(address[] memory) {\r\n        return TacoLibrary.sortTokens(_tokenArray);\r\n    }\r\n\r\n}\r\n",
  "sourcePath": "D:/Documents/farming/contracts/TacoHelper.sol",
  "compiler": {
    "name": "solc",
    "version": "0.7.0+commit.9e61f92b.Emscripten.clang"
  },
  "schemaVersion": "3.3.3",
  "updatedAt": "2021-06-26T22:40:25.769Z",
  "devdoc": {
    "author": "Kindynos",
    "kind": "dev",
    "methods": {
      "buyFund(address[],uint256,uint256[],address,uint256)": {
        "details": "The fundMin should include slippage.",
        "params": {
          "_tokenArray": "The addresses that make the fund.",
          "amounts": "The amount of each token that we want to spend. Amounts should be in order.",
          "deadline": "The block timestamp where this transaction will expire.",
          "fundMin": "The min amount of IFT we expect to receive.",
          "to": "The address that receives the funds."
        }
      },
      "buyFundETH(address[],uint256[],uint256,address,uint256)": {
        "details": "The ethAmount should include UPPER slippage.",
        "params": {
          "_tokenArray": "The addresses that make the fund.",
          "amounts": "Amounts of each token that the Helper will buy with the ETH/BNB. They should be in order.",
          "deadline": "The block timestamp where this transaction will expire.",
          "fundAmount": "The min amount of IFT we expect to receive.",
          "to": "The address that receives the funds."
        }
      },
      "constructor": {
        "params": {
          "_tacoFactory": "The amounts of the respective tokens that represent a (1) unit of the Fund Token",
          "_uniRouter": "The DEX router used to trade tokens."
        }
      },
      "getAmountsInForETH(address,uint256)": {
        "details": "This is an expensive function if called from a transaction.",
        "params": {
          "amountETH": "The ETH amount that will be used in the transaction.",
          "fund": "A valid fund address."
        },
        "returns": {
          "_0": "The amounts for each token required.",
          "_1": "The exact ETH amount expected to be spent."
        }
      },
      "sellFund(address[],uint256,uint256[],address,uint256)": {
        "details": "amountsMin should include slippage of at least 0.001",
        "params": {
          "_tokenArray": "The addresses that make the fund.",
          "amountFund": "Amount of fund token we wank to sell.",
          "amountsMin": "The min amount of tokens we expect to receive. Should be in order.",
          "deadline": "The block timestamp where this transaction will expire.",
          "to": "The address that receives the funds."
        }
      }
    },
    "title": "Helper Functions to buy funds.",
    "version": 1
  },
  "userdoc": {
    "kind": "user",
    "methods": {
      "buyFund(address[],uint256,uint256[],address,uint256)": {
        "notice": "Buys most funds possible using amounts given."
      },
      "buyFundETH(address[],uint256[],uint256,address,uint256)": {
        "notice": "Buys the amount of funds specified using ETH/BNB. Should be used with amounts from getAmountsInForETH or there could be leftovers."
      },
      "constructor": {
        "notice": "Creates an Index Fund."
      },
      "fundFor(address[])": {
        "notice": "Calculates the CREATE2 address for a fund without making any external calls"
      },
      "getAmountIn(address[],uint256)": {
        "notice": "Estimate minimum amounts needed to mint exact fund amount."
      },
      "getAmountOut(address[],uint256[])": {
        "notice": "Estimate maximum possible amount of fund minted for amounts. Assumes correct order"
      },
      "getAmountsInForETH(address,uint256)": {
        "notice": "Given ETH amount, estimate the min tokens amount[] to maximize fund acquisition."
      },
      "sellFund(address[],uint256,uint256[],address,uint256)": {
        "notice": "Sells the fund token for underlying."
      },
      "sortTokens(address[])": {
        "notice": "Sort token arrays to get the order used in the Controller and Fund."
      }
    },
    "version": 1
  }
}